{
  "_format": "hh-sol-artifact-1",
  "contractName": "TicketNFT",
  "sourceName": "contracts/TicketNFT.sol",
  "abi": [
    {
      "inputs": [
        {
          "internalType": "string",
          "name": "_baseURI",
          "type": "string"
        },
        {
          "internalType": "address",
          "name": "_admin",
          "type": "address"
        }
      ],
      "stateMutability": "nonpayable",
      "type": "constructor"
    },
    {
      "inputs": [],
      "name": "AccessControlBadConfirmation",
      "type": "error"
    },
    {
      "inputs": [
        {
          "internalType": "address",
          "name": "account",
          "type": "address"
        },
        {
          "internalType": "bytes32",
          "name": "neededRole",
          "type": "bytes32"
        }
      ],
      "name": "AccessControlUnauthorizedAccount",
      "type": "error"
    },
    {
      "inputs": [
        {
          "internalType": "address",
          "name": "sender",
          "type": "address"
        },
        {
          "internalType": "uint256",
          "name": "balance",
          "type": "uint256"
        },
        {
          "internalType": "uint256",
          "name": "needed",
          "type": "uint256"
        },
        {
          "internalType": "uint256",
          "name": "tokenId",
          "type": "uint256"
        }
      ],
      "name": "ERC1155InsufficientBalance",
      "type": "error"
    },
    {
      "inputs": [
        {
          "internalType": "address",
          "name": "approver",
          "type": "address"
        }
      ],
      "name": "ERC1155InvalidApprover",
      "type": "error"
    },
    {
      "inputs": [
        {
          "internalType": "uint256",
          "name": "idsLength",
          "type": "uint256"
        },
        {
          "internalType": "uint256",
          "name": "valuesLength",
          "type": "uint256"
        }
      ],
      "name": "ERC1155InvalidArrayLength",
      "type": "error"
    },
    {
      "inputs": [
        {
          "internalType": "address",
          "name": "operator",
          "type": "address"
        }
      ],
      "name": "ERC1155InvalidOperator",
      "type": "error"
    },
    {
      "inputs": [
        {
          "internalType": "address",
          "name": "receiver",
          "type": "address"
        }
      ],
      "name": "ERC1155InvalidReceiver",
      "type": "error"
    },
    {
      "inputs": [
        {
          "internalType": "address",
          "name": "sender",
          "type": "address"
        }
      ],
      "name": "ERC1155InvalidSender",
      "type": "error"
    },
    {
      "inputs": [
        {
          "internalType": "address",
          "name": "operator",
          "type": "address"
        },
        {
          "internalType": "address",
          "name": "owner",
          "type": "address"
        }
      ],
      "name": "ERC1155MissingApprovalForAll",
      "type": "error"
    },
    {
      "inputs": [],
      "name": "EnforcedPause",
      "type": "error"
    },
    {
      "inputs": [],
      "name": "ExpectedPause",
      "type": "error"
    },
    {
      "inputs": [],
      "name": "ReentrancyGuardReentrantCall",
      "type": "error"
    },
    {
      "anonymous": false,
      "inputs": [
        {
          "indexed": true,
          "internalType": "address",
          "name": "account",
          "type": "address"
        },
        {
          "indexed": true,
          "internalType": "address",
          "name": "operator",
          "type": "address"
        },
        {
          "indexed": false,
          "internalType": "bool",
          "name": "approved",
          "type": "bool"
        }
      ],
      "name": "ApprovalForAll",
      "type": "event"
    },
    {
      "anonymous": false,
      "inputs": [
        {
          "indexed": true,
          "internalType": "uint256",
          "name": "eventId",
          "type": "uint256"
        },
        {
          "indexed": false,
          "internalType": "string",
          "name": "name",
          "type": "string"
        },
        {
          "indexed": true,
          "internalType": "address",
          "name": "organizer",
          "type": "address"
        },
        {
          "indexed": false,
          "internalType": "uint256",
          "name": "startTime",
          "type": "uint256"
        },
        {
          "indexed": false,
          "internalType": "uint256",
          "name": "endTime",
          "type": "uint256"
        }
      ],
      "name": "EventCreated",
      "type": "event"
    },
    {
      "anonymous": false,
      "inputs": [
        {
          "indexed": true,
          "internalType": "uint256",
          "name": "eventId",
          "type": "uint256"
        },
        {
          "indexed": false,
          "internalType": "bool",
          "name": "isActive",
          "type": "bool"
        }
      ],
      "name": "EventUpdated",
      "type": "event"
    },
    {
      "anonymous": false,
      "inputs": [
        {
          "indexed": true,
          "internalType": "address",
          "name": "to",
          "type": "address"
        },
        {
          "indexed": false,
          "internalType": "uint256",
          "name": "amount",
          "type": "uint256"
        },
        {
          "indexed": false,
          "internalType": "uint256",
          "name": "timestamp",
          "type": "uint256"
        }
      ],
      "name": "FundsWithdrawn",
      "type": "event"
    },
    {
      "anonymous": false,
      "inputs": [
        {
          "indexed": false,
          "internalType": "address",
          "name": "account",
          "type": "address"
        }
      ],
      "name": "Paused",
      "type": "event"
    },
    {
      "anonymous": false,
      "inputs": [
        {
          "indexed": true,
          "internalType": "bytes32",
          "name": "role",
          "type": "bytes32"
        },
        {
          "indexed": true,
          "internalType": "bytes32",
          "name": "previousAdminRole",
          "type": "bytes32"
        },
        {
          "indexed": true,
          "internalType": "bytes32",
          "name": "newAdminRole",
          "type": "bytes32"
        }
      ],
      "name": "RoleAdminChanged",
      "type": "event"
    },
    {
      "anonymous": false,
      "inputs": [
        {
          "indexed": true,
          "internalType": "bytes32",
          "name": "role",
          "type": "bytes32"
        },
        {
          "indexed": true,
          "internalType": "address",
          "name": "account",
          "type": "address"
        },
        {
          "indexed": true,
          "internalType": "address",
          "name": "sender",
          "type": "address"
        }
      ],
      "name": "RoleGranted",
      "type": "event"
    },
    {
      "anonymous": false,
      "inputs": [
        {
          "indexed": true,
          "internalType": "bytes32",
          "name": "role",
          "type": "bytes32"
        },
        {
          "indexed": true,
          "internalType": "address",
          "name": "account",
          "type": "address"
        },
        {
          "indexed": true,
          "internalType": "address",
          "name": "sender",
          "type": "address"
        }
      ],
      "name": "RoleRevoked",
      "type": "event"
    },
    {
      "anonymous": false,
      "inputs": [
        {
          "indexed": true,
          "internalType": "uint256",
          "name": "tokenId",
          "type": "uint256"
        },
        {
          "indexed": true,
          "internalType": "uint256",
          "name": "eventId",
          "type": "uint256"
        },
        {
          "indexed": true,
          "internalType": "address",
          "name": "holder",
          "type": "address"
        },
        {
          "indexed": false,
          "internalType": "uint256",
          "name": "timestamp",
          "type": "uint256"
        }
      ],
      "name": "TicketCheckedIn",
      "type": "event"
    },
    {
      "anonymous": false,
      "inputs": [
        {
          "indexed": true,
          "internalType": "uint256",
          "name": "tokenId",
          "type": "uint256"
        },
        {
          "indexed": true,
          "internalType": "uint256",
          "name": "eventId",
          "type": "uint256"
        },
        {
          "indexed": true,
          "internalType": "address",
          "name": "buyer",
          "type": "address"
        },
        {
          "indexed": false,
          "internalType": "uint256",
          "name": "amount",
          "type": "uint256"
        },
        {
          "indexed": false,
          "internalType": "uint256",
          "name": "price",
          "type": "uint256"
        }
      ],
      "name": "TicketPurchased",
      "type": "event"
    },
    {
      "anonymous": false,
      "inputs": [
        {
          "indexed": true,
          "internalType": "uint256",
          "name": "tokenId",
          "type": "uint256"
        },
        {
          "indexed": true,
          "internalType": "uint256",
          "name": "eventId",
          "type": "uint256"
        },
        {
          "indexed": false,
          "internalType": "string",
          "name": "name",
          "type": "string"
        },
        {
          "indexed": false,
          "internalType": "uint256",
          "name": "price",
          "type": "uint256"
        },
        {
          "indexed": false,
          "internalType": "uint256",
          "name": "maxSupply",
          "type": "uint256"
        }
      ],
      "name": "TicketTypeCreated",
      "type": "event"
    },
    {
      "anonymous": false,
      "inputs": [
        {
          "indexed": true,
          "internalType": "address",
          "name": "operator",
          "type": "address"
        },
        {
          "indexed": true,
          "internalType": "address",
          "name": "from",
          "type": "address"
        },
        {
          "indexed": true,
          "internalType": "address",
          "name": "to",
          "type": "address"
        },
        {
          "indexed": false,
          "internalType": "uint256[]",
          "name": "ids",
          "type": "uint256[]"
        },
        {
          "indexed": false,
          "internalType": "uint256[]",
          "name": "values",
          "type": "uint256[]"
        }
      ],
      "name": "TransferBatch",
      "type": "event"
    },
    {
      "anonymous": false,
      "inputs": [
        {
          "indexed": true,
          "internalType": "address",
          "name": "operator",
          "type": "address"
        },
        {
          "indexed": true,
          "internalType": "address",
          "name": "from",
          "type": "address"
        },
        {
          "indexed": true,
          "internalType": "address",
          "name": "to",
          "type": "address"
        },
        {
          "indexed": false,
          "internalType": "uint256",
          "name": "id",
          "type": "uint256"
        },
        {
          "indexed": false,
          "internalType": "uint256",
          "name": "value",
          "type": "uint256"
        }
      ],
      "name": "TransferSingle",
      "type": "event"
    },
    {
      "anonymous": false,
      "inputs": [
        {
          "indexed": false,
          "internalType": "string",
          "name": "value",
          "type": "string"
        },
        {
          "indexed": true,
          "internalType": "uint256",
          "name": "id",
          "type": "uint256"
        }
      ],
      "name": "URI",
      "type": "event"
    },
    {
      "anonymous": false,
      "inputs": [
        {
          "indexed": false,
          "internalType": "address",
          "name": "account",
          "type": "address"
        }
      ],
      "name": "Unpaused",
      "type": "event"
    },
    {
      "inputs": [],
      "name": "ADMIN_ROLE",
      "outputs": [
        {
          "internalType": "bytes32",
          "name": "",
          "type": "bytes32"
        }
      ],
      "stateMutability": "view",
      "type": "function"
    },
    {
      "inputs": [],
      "name": "DEFAULT_ADMIN_ROLE",
      "outputs": [
        {
          "internalType": "bytes32",
          "name": "",
          "type": "bytes32"
        }
      ],
      "stateMutability": "view",
      "type": "function"
    },
    {
      "inputs": [],
      "name": "MINTER_ROLE",
      "outputs": [
        {
          "internalType": "bytes32",
          "name": "",
          "type": "bytes32"
        }
      ],
      "stateMutability": "view",
      "type": "function"
    },
    {
      "inputs": [],
      "name": "ORGANIZER_ROLE",
      "outputs": [
        {
          "internalType": "bytes32",
          "name": "",
          "type": "bytes32"
        }
      ],
      "stateMutability": "view",
      "type": "function"
    },
    {
      "inputs": [
        {
          "internalType": "address",
          "name": "account",
          "type": "address"
        },
        {
          "internalType": "uint256",
          "name": "id",
          "type": "uint256"
        }
      ],
      "name": "balanceOf",
      "outputs": [
        {
          "internalType": "uint256",
          "name": "",
          "type": "uint256"
        }
      ],
      "stateMutability": "view",
      "type": "function"
    },
    {
      "inputs": [
        {
          "internalType": "address[]",
          "name": "accounts",
          "type": "address[]"
        },
        {
          "internalType": "uint256[]",
          "name": "ids",
          "type": "uint256[]"
        }
      ],
      "name": "balanceOfBatch",
      "outputs": [
        {
          "internalType": "uint256[]",
          "name": "",
          "type": "uint256[]"
        }
      ],
      "stateMutability": "view",
      "type": "function"
    },
    {
      "inputs": [
        {
          "internalType": "uint256",
          "name": "_tokenId",
          "type": "uint256"
        },
        {
          "internalType": "address",
          "name": "_holder",
          "type": "address"
        }
      ],
      "name": "checkInTicket",
      "outputs": [],
      "stateMutability": "nonpayable",
      "type": "function"
    },
    {
      "inputs": [
        {
          "internalType": "string",
          "name": "_name",
          "type": "string"
        },
        {
          "internalType": "string",
          "name": "_description",
          "type": "string"
        },
        {
          "internalType": "uint256",
          "name": "_startTime",
          "type": "uint256"
        },
        {
          "internalType": "uint256",
          "name": "_endTime",
          "type": "uint256"
        }
      ],
      "name": "createEvent",
      "outputs": [
        {
          "internalType": "uint256",
          "name": "",
          "type": "uint256"
        }
      ],
      "stateMutability": "nonpayable",
      "type": "function"
    },
    {
      "inputs": [
        {
          "internalType": "uint256",
          "name": "_eventId",
          "type": "uint256"
        },
        {
          "internalType": "string",
          "name": "_name",
          "type": "string"
        },
        {
          "internalType": "uint256",
          "name": "_price",
          "type": "uint256"
        },
        {
          "internalType": "uint256",
          "name": "_maxSupply",
          "type": "uint256"
        },
        {
          "internalType": "uint256",
          "name": "_startSaleTime",
          "type": "uint256"
        },
        {
          "internalType": "uint256",
          "name": "_endSaleTime",
          "type": "uint256"
        }
      ],
      "name": "createTicketType",
      "outputs": [
        {
          "internalType": "uint256",
          "name": "",
          "type": "uint256"
        }
      ],
      "stateMutability": "nonpayable",
      "type": "function"
    },
    {
      "inputs": [
        {
          "internalType": "uint256",
          "name": "",
          "type": "uint256"
        },
        {
          "internalType": "uint256",
          "name": "",
          "type": "uint256"
        }
      ],
      "name": "eventTicketTypes",
      "outputs": [
        {
          "internalType": "uint256",
          "name": "",
          "type": "uint256"
        }
      ],
      "stateMutability": "view",
      "type": "function"
    },
    {
      "inputs": [
        {
          "internalType": "uint256",
          "name": "",
          "type": "uint256"
        }
      ],
      "name": "events",
      "outputs": [
        {
          "internalType": "uint256",
          "name": "eventId",
          "type": "uint256"
        },
        {
          "internalType": "string",
          "name": "name",
          "type": "string"
        },
        {
          "internalType": "string",
          "name": "description",
          "type": "string"
        },
        {
          "internalType": "uint256",
          "name": "startTime",
          "type": "uint256"
        },
        {
          "internalType": "uint256",
          "name": "endTime",
          "type": "uint256"
        },
        {
          "internalType": "address",
          "name": "organizer",
          "type": "address"
        },
        {
          "internalType": "bool",
          "name": "isActive",
          "type": "bool"
        },
        {
          "internalType": "uint256",
          "name": "createdAt",
          "type": "uint256"
        }
      ],
      "stateMutability": "view",
      "type": "function"
    },
    {
      "inputs": [
        {
          "internalType": "uint256",
          "name": "id",
          "type": "uint256"
        }
      ],
      "name": "exists",
      "outputs": [
        {
          "internalType": "bool",
          "name": "",
          "type": "bool"
        }
      ],
      "stateMutability": "view",
      "type": "function"
    },
    {
      "inputs": [],
      "name": "getBalance",
      "outputs": [
        {
          "internalType": "uint256",
          "name": "",
          "type": "uint256"
        }
      ],
      "stateMutability": "view",
      "type": "function"
    },
    {
      "inputs": [
        {
          "internalType": "uint256",
          "name": "_eventId",
          "type": "uint256"
        }
      ],
      "name": "getEvent",
      "outputs": [
        {
          "components": [
            {
              "internalType": "uint256",
              "name": "eventId",
              "type": "uint256"
            },
            {
              "internalType": "string",
              "name": "name",
              "type": "string"
            },
            {
              "internalType": "string",
              "name": "description",
              "type": "string"
            },
            {
              "internalType": "uint256",
              "name": "startTime",
              "type": "uint256"
            },
            {
              "internalType": "uint256",
              "name": "endTime",
              "type": "uint256"
            },
            {
              "internalType": "address",
              "name": "organizer",
              "type": "address"
            },
            {
              "internalType": "bool",
              "name": "isActive",
              "type": "bool"
            },
            {
              "internalType": "uint256",
              "name": "createdAt",
              "type": "uint256"
            }
          ],
          "internalType": "struct TicketNFT.Event",
          "name": "",
          "type": "tuple"
        }
      ],
      "stateMutability": "view",
      "type": "function"
    },
    {
      "inputs": [
        {
          "internalType": "uint256",
          "name": "_eventId",
          "type": "uint256"
        }
      ],
      "name": "getEventTicketTypes",
      "outputs": [
        {
          "internalType": "uint256[]",
          "name": "",
          "type": "uint256[]"
        }
      ],
      "stateMutability": "view",
      "type": "function"
    },
    {
      "inputs": [
        {
          "internalType": "bytes32",
          "name": "role",
          "type": "bytes32"
        }
      ],
      "name": "getRoleAdmin",
      "outputs": [
        {
          "internalType": "bytes32",
          "name": "",
          "type": "bytes32"
        }
      ],
      "stateMutability": "view",
      "type": "function"
    },
    {
      "inputs": [
        {
          "internalType": "uint256",
          "name": "_tokenId",
          "type": "uint256"
        }
      ],
      "name": "getTicketType",
      "outputs": [
        {
          "components": [
            {
              "internalType": "uint256",
              "name": "tokenId",
              "type": "uint256"
            },
            {
              "internalType": "uint256",
              "name": "eventId",
              "type": "uint256"
            },
            {
              "internalType": "string",
              "name": "name",
              "type": "string"
            },
            {
              "internalType": "uint256",
              "name": "price",
              "type": "uint256"
            },
            {
              "internalType": "uint256",
              "name": "maxSupply",
              "type": "uint256"
            },
            {
              "internalType": "uint256",
              "name": "startSaleTime",
              "type": "uint256"
            },
            {
              "internalType": "uint256",
              "name": "endSaleTime",
              "type": "uint256"
            },
            {
              "internalType": "bool",
              "name": "isActive",
              "type": "bool"
            }
          ],
          "internalType": "struct TicketNFT.TicketType",
          "name": "",
          "type": "tuple"
        }
      ],
      "stateMutability": "view",
      "type": "function"
    },
    {
      "inputs": [
        {
          "internalType": "bytes32",
          "name": "role",
          "type": "bytes32"
        },
        {
          "internalType": "address",
          "name": "account",
          "type": "address"
        }
      ],
      "name": "grantRole",
      "outputs": [],
      "stateMutability": "nonpayable",
      "type": "function"
    },
    {
      "inputs": [
        {
          "internalType": "bytes32",
          "name": "role",
          "type": "bytes32"
        },
        {
          "internalType": "address",
          "name": "account",
          "type": "address"
        }
      ],
      "name": "hasRole",
      "outputs": [
        {
          "internalType": "bool",
          "name": "",
          "type": "bool"
        }
      ],
      "stateMutability": "view",
      "type": "function"
    },
    {
      "inputs": [
        {
          "internalType": "address",
          "name": "account",
          "type": "address"
        },
        {
          "internalType": "address",
          "name": "operator",
          "type": "address"
        }
      ],
      "name": "isApprovedForAll",
      "outputs": [
        {
          "internalType": "bool",
          "name": "",
          "type": "bool"
        }
      ],
      "stateMutability": "view",
      "type": "function"
    },
    {
      "inputs": [],
      "name": "name",
      "outputs": [
        {
          "internalType": "string",
          "name": "",
          "type": "string"
        }
      ],
      "stateMutability": "view",
      "type": "function"
    },
    {
      "inputs": [],
      "name": "pause",
      "outputs": [],
      "stateMutability": "nonpayable",
      "type": "function"
    },
    {
      "inputs": [],
      "name": "paused",
      "outputs": [
        {
          "internalType": "bool",
          "name": "",
          "type": "bool"
        }
      ],
      "stateMutability": "view",
      "type": "function"
    },
    {
      "inputs": [
        {
          "internalType": "uint256",
          "name": "_tokenId",
          "type": "uint256"
        },
        {
          "internalType": "uint256",
          "name": "_amount",
          "type": "uint256"
        }
      ],
      "name": "purchaseTicket",
      "outputs": [],
      "stateMutability": "payable",
      "type": "function"
    },
    {
      "inputs": [
        {
          "internalType": "bytes32",
          "name": "role",
          "type": "bytes32"
        },
        {
          "internalType": "address",
          "name": "callerConfirmation",
          "type": "address"
        }
      ],
      "name": "renounceRole",
      "outputs": [],
      "stateMutability": "nonpayable",
      "type": "function"
    },
    {
      "inputs": [
        {
          "internalType": "bytes32",
          "name": "role",
          "type": "bytes32"
        },
        {
          "internalType": "address",
          "name": "account",
          "type": "address"
        }
      ],
      "name": "revokeRole",
      "outputs": [],
      "stateMutability": "nonpayable",
      "type": "function"
    },
    {
      "inputs": [
        {
          "internalType": "address",
          "name": "from",
          "type": "address"
        },
        {
          "internalType": "address",
          "name": "to",
          "type": "address"
        },
        {
          "internalType": "uint256[]",
          "name": "ids",
          "type": "uint256[]"
        },
        {
          "internalType": "uint256[]",
          "name": "values",
          "type": "uint256[]"
        },
        {
          "internalType": "bytes",
          "name": "data",
          "type": "bytes"
        }
      ],
      "name": "safeBatchTransferFrom",
      "outputs": [],
      "stateMutability": "nonpayable",
      "type": "function"
    },
    {
      "inputs": [
        {
          "internalType": "address",
          "name": "from",
          "type": "address"
        },
        {
          "internalType": "address",
          "name": "to",
          "type": "address"
        },
        {
          "internalType": "uint256",
          "name": "id",
          "type": "uint256"
        },
        {
          "internalType": "uint256",
          "name": "value",
          "type": "uint256"
        },
        {
          "internalType": "bytes",
          "name": "data",
          "type": "bytes"
        }
      ],
      "name": "safeTransferFrom",
      "outputs": [],
      "stateMutability": "nonpayable",
      "type": "function"
    },
    {
      "inputs": [
        {
          "internalType": "address",
          "name": "operator",
          "type": "address"
        },
        {
          "internalType": "bool",
          "name": "approved",
          "type": "bool"
        }
      ],
      "name": "setApprovalForAll",
      "outputs": [],
      "stateMutability": "nonpayable",
      "type": "function"
    },
    {
      "inputs": [
        {
          "internalType": "string",
          "name": "_newURI",
          "type": "string"
        }
      ],
      "name": "setURI",
      "outputs": [],
      "stateMutability": "nonpayable",
      "type": "function"
    },
    {
      "inputs": [
        {
          "internalType": "bytes4",
          "name": "interfaceId",
          "type": "bytes4"
        }
      ],
      "name": "supportsInterface",
      "outputs": [
        {
          "internalType": "bool",
          "name": "",
          "type": "bool"
        }
      ],
      "stateMutability": "view",
      "type": "function"
    },
    {
      "inputs": [],
      "name": "symbol",
      "outputs": [
        {
          "internalType": "string",
          "name": "",
          "type": "string"
        }
      ],
      "stateMutability": "view",
      "type": "function"
    },
    {
      "inputs": [
        {
          "internalType": "uint256",
          "name": "",
          "type": "uint256"
        }
      ],
      "name": "ticketTypes",
      "outputs": [
        {
          "internalType": "uint256",
          "name": "tokenId",
          "type": "uint256"
        },
        {
          "internalType": "uint256",
          "name": "eventId",
          "type": "uint256"
        },
        {
          "internalType": "string",
          "name": "name",
          "type": "string"
        },
        {
          "internalType": "uint256",
          "name": "price",
          "type": "uint256"
        },
        {
          "internalType": "uint256",
          "name": "maxSupply",
          "type": "uint256"
        },
        {
          "internalType": "uint256",
          "name": "startSaleTime",
          "type": "uint256"
        },
        {
          "internalType": "uint256",
          "name": "endSaleTime",
          "type": "uint256"
        },
        {
          "internalType": "bool",
          "name": "isActive",
          "type": "bool"
        }
      ],
      "stateMutability": "view",
      "type": "function"
    },
    {
      "inputs": [],
      "name": "totalSupply",
      "outputs": [
        {
          "internalType": "uint256",
          "name": "",
          "type": "uint256"
        }
      ],
      "stateMutability": "view",
      "type": "function"
    },
    {
      "inputs": [
        {
          "internalType": "uint256",
          "name": "id",
          "type": "uint256"
        }
      ],
      "name": "totalSupply",
      "outputs": [
        {
          "internalType": "uint256",
          "name": "",
          "type": "uint256"
        }
      ],
      "stateMutability": "view",
      "type": "function"
    },
    {
      "inputs": [],
      "name": "unpause",
      "outputs": [],
      "stateMutability": "nonpayable",
      "type": "function"
    },
    {
      "inputs": [
        {
          "internalType": "uint256",
          "name": "_eventId",
          "type": "uint256"
        },
        {
          "internalType": "bool",
          "name": "_isActive",
          "type": "bool"
        }
      ],
      "name": "updateEventStatus",
      "outputs": [],
      "stateMutability": "nonpayable",
      "type": "function"
    },
    {
      "inputs": [
        {
          "internalType": "uint256",
          "name": "",
          "type": "uint256"
        }
      ],
      "name": "uri",
      "outputs": [
        {
          "internalType": "string",
          "name": "",
          "type": "string"
        }
      ],
      "stateMutability": "view",
      "type": "function"
    },
    {
      "inputs": [
        {
          "internalType": "uint256",
          "name": "",
          "type": "uint256"
        }
      ],
      "name": "usedTickets",
      "outputs": [
        {
          "internalType": "bool",
          "name": "",
          "type": "bool"
        }
      ],
      "stateMutability": "view",
      "type": "function"
    },
    {
      "inputs": [
        {
          "internalType": "address payable",
          "name": "_to",
          "type": "address"
        }
      ],
      "name": "withdraw",
      "outputs": [],
      "stateMutability": "nonpayable",
      "type": "function"
    }
  ],
  "bytecode": "0x60c0604052601060809081526f115d995b9d08151a58dad95d0813919560821b60a052600e906200003190826200027b565b50604080518082019091526006815265151250d2d15560d21b6020820152600f906200005e90826200027b565b503480156200006c57600080fd5b50604051620037b0380380620037b08339810160408190526200008f9162000364565b816200009b8162000111565b506001600755620000ae60008262000123565b50620000db7fa49807205ce4d355092ef5a8a18f56e8913cf4a201fbe287825b095693c217758262000123565b50620001087f9f2df0fed2c77648de5860a4cc508cd0818c85b8b8a1ab4ceeef8d981c8956a68262000123565b5050506200044c565b60026200011f82826200027b565b5050565b60008281526003602090815260408083206001600160a01b038516845290915281205460ff16620001cc5760008381526003602090815260408083206001600160a01b03861684529091529020805460ff19166001179055620001833390565b6001600160a01b0316826001600160a01b0316847f2f8788117e7eff1d82e926ec794901d17c78024a50270940304540a733656f0d60405160405180910390a4506001620001d0565b5060005b92915050565b634e487b7160e01b600052604160045260246000fd5b600181811c908216806200020157607f821691505b6020821081036200022257634e487b7160e01b600052602260045260246000fd5b50919050565b601f8211156200027657600081815260208120601f850160051c81016020861015620002515750805b601f850160051c820191505b8181101562000272578281556001016200025d565b5050505b505050565b81516001600160401b03811115620002975762000297620001d6565b620002af81620002a88454620001ec565b8462000228565b602080601f831160018114620002e75760008415620002ce5750858301515b600019600386901b1c1916600185901b17855562000272565b600085815260208120601f198616915b828110156200031857888601518255948401946001909101908401620002f7565b5085821015620003375787850151600019600388901b60f8161c191681555b5050505050600190811b01905550565b80516001600160a01b03811681146200035f57600080fd5b919050565b600080604083850312156200037857600080fd5b82516001600160401b03808211156200039057600080fd5b818501915085601f830112620003a557600080fd5b815181811115620003ba57620003ba620001d6565b604051601f8201601f19908116603f01168101908382118183101715620003e557620003e5620001d6565b816040528281526020935088848487010111156200040257600080fd5b600091505b8282101562000426578482018401518183018501529083019062000407565b60008484830101528096505050506200044181860162000347565b925050509250929050565b613354806200045c6000396000f3fe60806040526004361061023a5760003560e01c806354484fb01161012e578063a22cb465116100ab578063d53913931161006f578063d5391393146106fa578063d547741f1461072e578063e985e9c51461074e578063e9dbebce1461076e578063f242432a146107a257600080fd5b8063a22cb4651461065a578063bce062b91461067a578063bd85b0391461069a578063bdbbb0cb146106c7578063d3c59876146106da57600080fd5b80637909cb59116100f25780637909cb59146105c75780638456cb59146105fb57806391d148541461061057806395d89b4114610630578063a217fddf1461064557600080fd5b806354484fb0146105105780635c975abb146105305780636d1884e01461054857806371efdc211461057557806375b238fc146105a557600080fd5b8063248a9ca3116101bc578063365f628111610180578063365f62811461045f5780633f4ba83a1461047f5780634e1273f4146104945780634f558e79146104c157806351cff8d9146104f057600080fd5b8063248a9ca3146103af57806325103a9c146103df5780632eb2c2d6146103ff5780632f2ff15d1461041f57806336568abe1461043f57600080fd5b80630e89341c116102035780630e89341c1461031a57806312065fe01461033a578063163e0f461461034d57806318160ddd1461037a578063235fd62b1461038f57600080fd5b8062fdd58e1461023f57806301ffc9a71461027257806302fe5305146102a257806306fdde03146102c45780630b791430146102e6575b600080fd5b34801561024b57600080fd5b5061025f61025a366004612803565b6107c2565b6040519081526020015b60405180910390f35b34801561027e57600080fd5b5061029261028d366004612845565b6107ea565b6040519015158152602001610269565b3480156102ae57600080fd5b506102c26102bd366004612920565b6107f5565b005b3480156102d057600080fd5b506102d961081a565b60405161026991906129a3565b3480156102f257600080fd5b506103066103013660046129b6565b6108a8565b6040516102699897969594939291906129cf565b34801561032657600080fd5b506102d96103353660046129b6565b610a0a565b34801561034657600080fd5b504761025f565b34801561035957600080fd5b5061036d6103683660046129b6565b610a9e565b6040516102699190612a34565b34801561038657600080fd5b5060055461025f565b34801561039b57600080fd5b5061025f6103aa366004612aa7565b610beb565b3480156103bb57600080fd5b5061025f6103ca3660046129b6565b60009081526003602052604090206001015490565b3480156103eb57600080fd5b506102c26103fa366004612b11565b610ef4565b34801561040b57600080fd5b506102c261041a366004612bd0565b6110b2565b34801561042b57600080fd5b506102c261043a366004612b11565b611119565b34801561044b57600080fd5b506102c261045a366004612b11565b611144565b34801561046b57600080fd5b5061025f61047a366004612c7e565b61117c565b34801561048b57600080fd5b506102c26111ad565b3480156104a057600080fd5b506104b46104af366004612ca0565b6111d0565b6040516102699190612d9d565b3480156104cd57600080fd5b506102926104dc3660046129b6565b600090815260046020526040902054151590565b3480156104fc57600080fd5b506102c261050b366004612db0565b6112a5565b34801561051c57600080fd5b506102c261052b366004612de2565b6113d7565b34801561053c57600080fd5b5060065460ff16610292565b34801561055457600080fd5b506105686105633660046129b6565b6114ae565b6040516102699190612e0e565b34801561058157600080fd5b506102926105903660046129b6565b600d6020526000908152604090205460ff1681565b3480156105b157600080fd5b5061025f6000805160206132ff83398151915281565b3480156105d357600080fd5b5061025f7f4d2e7a1e3f5dd6e203f087b15756ccf0e4ccd947fe1b639a38540089a1e47f6381565b34801561060757600080fd5b506102c2611698565b34801561061c57600080fd5b5061029261062b366004612b11565b6116b8565b34801561063c57600080fd5b506102d96116e3565b34801561065157600080fd5b5061025f600081565b34801561066657600080fd5b506102c2610675366004612ea4565b6116f0565b34801561068657600080fd5b5061025f610695366004612ed0565b6116fb565b3480156106a657600080fd5b5061025f6106b53660046129b6565b60009081526004602052604090205490565b6102c26106d5366004612c7e565b61195a565b3480156106e657600080fd5b506104b46106f53660046129b6565b611be8565b34801561070657600080fd5b5061025f7f9f2df0fed2c77648de5860a4cc508cd0818c85b8b8a1ab4ceeef8d981c8956a681565b34801561073a57600080fd5b506102c2610749366004612b11565b611c49565b34801561075a57600080fd5b50610292610769366004612f44565b611c6e565b34801561077a57600080fd5b5061078e6107893660046129b6565b611c9c565b604051610269989796959493929190612f72565b3480156107ae57600080fd5b506102c26107bd366004612fc0565b611d69565b6000818152602081815260408083206001600160a01b03861684529091529020545b92915050565b60006107e482611dc8565b6000805160206132ff83398151915261080d81611ded565b61081682611df7565b5050565b600e805461082790613029565b80601f016020809104026020016040519081016040528092919081815260200182805461085390613029565b80156108a05780601f10610875576101008083540402835291602001916108a0565b820191906000526020600020905b81548152906001019060200180831161088357829003601f168201915b505050505081565b600a60205260009081526040902080546001820180549192916108ca90613029565b80601f01602080910402602001604051908101604052809291908181526020018280546108f690613029565b80156109435780601f1061091857610100808354040283529160200191610943565b820191906000526020600020905b81548152906001019060200180831161092657829003601f168201915b50505050509080600201805461095890613029565b80601f016020809104026020016040519081016040528092919081815260200182805461098490613029565b80156109d15780601f106109a6576101008083540402835291602001916109d1565b820191906000526020600020905b8154815290600101906020018083116109b457829003601f168201915b50505050600383015460048401546005850154600690950154939491939092506001600160a01b03821691600160a01b900460ff169088565b606060028054610a1990613029565b80601f0160208091040260200160405190810160405280929190818152602001828054610a4590613029565b8015610a925780601f10610a6757610100808354040283529160200191610a92565b820191906000526020600020905b815481529060010190602001808311610a7557829003601f168201915b50505050509050919050565b610ae8604051806101000160405280600081526020016000815260200160608152602001600081526020016000815260200160008152602001600081526020016000151581525090565b600b6000838152602001908152602001600020604051806101000160405290816000820154815260200160018201548152602001600282018054610b2b90613029565b80601f0160208091040260200160405190810160405280929190818152602001828054610b5790613029565b8015610ba45780601f10610b7957610100808354040283529160200191610ba4565b820191906000526020600020905b815481529060010190602001808311610b8757829003601f168201915b50505091835250506003820154602082015260048201546040820152600582015460608201526006820154608082015260079091015460ff16151560a09091015292915050565b6000610bf5611e03565b6000878152600a602052604090206005810154600160a01b900460ff16610c565760405162461bcd60e51b815260206004820152601060248201526f4576656e74206e6f742061637469766560801b60448201526064015b60405180910390fd5b60058101546001600160a01b0316331480610c845750610c846000805160206132ff833981519152336116b8565b610cc15760405162461bcd60e51b815260206004820152600e60248201526d139bdd08185d5d1a1bdc9a5e995960921b6044820152606401610c4d565b60008511610d1b5760405162461bcd60e51b815260206004820152602160248201527f4d617820737570706c79206d7573742062652067726561746572207468616e206044820152600360fc1b6064820152608401610c4d565b838311610d6a5760405162461bcd60e51b815260206004820152601760248201527f496e76616c69642073616c652074696d652072616e67650000000000000000006044820152606401610c4d565b8060030154831115610dbe5760405162461bcd60e51b815260206004820152601a60248201527f53616c65206d75737420656e64206265666f7265206576656e740000000000006044820152606401610c4d565b6009805460009182610dcf83613079565b90915550604080516101008101825282815260208082018d81528284018d8152606084018d9052608084018c905260a084018b905260c084018a9052600160e085018190526000878152600b909452949092208351815590519381019390935551929350916002820190610e4390826130d8565b50606082015160038201556080820151600482015560a0820151600582015560c0820151600682015560e0909101516007909101805460ff19169115159190911790556000898152600c602090815260408083208054600181018255908452919092200182905551899082907fabf330a08fa3934846cf859dcbe8bccd2c598df64758145917e967b88e80b11b90610ee0908c908c908c90613198565b60405180910390a398975050505050505050565b7f4d2e7a1e3f5dd6e203f087b15756ccf0e4ccd947fe1b639a38540089a1e47f63610f1e81611ded565b6000610f2a83856107c2565b11610f775760405162461bcd60e51b815260206004820152601a60248201527f486f6c64657220646f6573206e6f74206f776e207469636b65740000000000006044820152606401610c4d565b6000838152600d602052604090205460ff1615610fcc5760405162461bcd60e51b8152602060048201526013602482015272151a58dad95d08185b1c9958591e481d5cd959606a1b6044820152606401610c4d565b6000838152600b6020908152604080832060018101548452600a90925290912060038101544210801590611004575080600401544211155b6110435760405162461bcd60e51b815260206004820152601060248201526f4576656e74206e6f742061637469766560801b6044820152606401610c4d565b6000858152600d602052604090819020805460ff1916600190811790915583015490516001600160a01b038616919087907f2782fb3b1d5410074bc2b5c4dc27369e9e67acedb9a92b1ca450f910bcba51d4906110a39042815260200190565b60405180910390a45050505050565b336001600160a01b03861681148015906110d357506110d18682611c6e565b155b156111045760405163711bec9160e11b81526001600160a01b03808316600483015287166024820152604401610c4d565b6111118686868686611e29565b505050505050565b60008281526003602052604090206001015461113481611ded565b61113e8383611e90565b50505050565b6001600160a01b038116331461116d5760405163334bd91960e11b815260040160405180910390fd5b6111778282611f24565b505050565b600c602052816000526040600020818154811061119857600080fd5b90600052602060002001600091509150505481565b6000805160206132ff8339815191526111c581611ded565b6111cd611f91565b50565b606081518351146112015781518351604051635b05999160e01b815260048101929092526024820152604401610c4d565b6000835167ffffffffffffffff81111561121d5761121d612869565b604051908082528060200260200182016040528015611246578160200160208202803683370190505b50905060005b845181101561129d57602080820286010151611270906020808402870101516107c2565b828281518110611282576112826131bd565b602090810291909101015261129681613079565b905061124c565b509392505050565b6000805160206132ff8339815191526112bd81611ded565b6112c5611fe3565b6001600160a01b03821661130d5760405162461bcd60e51b815260206004820152600f60248201526e496e76616c6964206164647265737360881b6044820152606401610c4d565b47806113525760405162461bcd60e51b81526020600482015260146024820152734e6f2066756e647320746f20776974686472617760601b6044820152606401610c4d565b6040516001600160a01b0384169082156108fc029083906000818181858888f19350505050158015611388573d6000803e3d6000fd5b50604080518281524260208201526001600160a01b038516917ffbc3a599b784fe88772fc5abcc07223f64ca0b13acc341f4fb1e46bef0510eb4910160405180910390a2506108166001600755565b6000828152600a6020526040902060058101546001600160a01b031633148061141357506114136000805160206132ff833981519152336116b8565b6114505760405162461bcd60e51b815260206004820152600e60248201526d139bdd08185d5d1a1bdc9a5e995960921b6044820152606401610c4d565b600581018054831515600160a01b0260ff60a01b1990911617905560405183907fb2bc5d7509f733d56ab7e45b3eacfbec4e497ae2863122195501d98ea897b4da906114a190851515815260200190565b60405180910390a2505050565b611501604051806101000160405280600081526020016060815260200160608152602001600081526020016000815260200160006001600160a01b03168152602001600015158152602001600081525090565b600a6000838152602001908152602001600020604051806101000160405290816000820154815260200160018201805461153a90613029565b80601f016020809104026020016040519081016040528092919081815260200182805461156690613029565b80156115b35780601f10611588576101008083540402835291602001916115b3565b820191906000526020600020905b81548152906001019060200180831161159657829003601f168201915b505050505081526020016002820180546115cc90613029565b80601f01602080910402602001604051908101604052809291908181526020018280546115f890613029565b80156116455780601f1061161a57610100808354040283529160200191611645565b820191906000526020600020905b81548152906001019060200180831161162857829003601f168201915b5050509183525050600382015460208201526004820154604082015260058201546001600160a01b0381166060830152600160a01b900460ff161515608082015260069091015460a09091015292915050565b6000805160206132ff8339815191526116b081611ded565b6111cd61200d565b60009182526003602090815260408084206001600160a01b0393909316845291905290205460ff1690565b600f805461082790613029565b61081633838361204a565b6000611705611e03565b4283116117545760405162461bcd60e51b815260206004820152601c60248201527f53746172742074696d65206d75737420626520696e20667574757265000000006044820152606401610c4d565b8282116117ad5760405162461bcd60e51b815260206004820152602160248201527f456e642074696d65206d7573742062652061667465722073746172742074696d6044820152606560f81b6064820152608401610c4d565b60008551116117f55760405162461bcd60e51b81526020600482015260146024820152734e616d652063616e6e6f7420626520656d70747960601b6044820152606401610c4d565b600880546000918261180683613079565b90915550604080516101008101825282815260208082018a81528284018a905260608301899052608083018890523360a0840152600160c084018190524260e08501526000868152600a909352939091208251815590519394509092909182019061187190826130d8565b506040820151600282019061188690826130d8565b50606082015160038201556080820151600482015560a082015160058201805460c08501511515600160a01b026001600160a81b03199091166001600160a01b039093169290921791909117905560e09091015160069091015561190a7f4d2e7a1e3f5dd6e203f087b15756ccf0e4ccd947fe1b639a38540089a1e47f6333611e90565b50336001600160a01b0316817f81f945738beff591c3eab232e9f3265ce3f12263a2ec7acf84db8dc0fce26a2788878760405161194993929190613198565b60405180910390a395945050505050565b611962611e03565b61196a611fe3565b6000828152600b60205260409020600781015460ff166119c55760405162461bcd60e51b81526020600482015260166024820152755469636b65742074797065206e6f742061637469766560501b6044820152606401610c4d565b60008211611a155760405162461bcd60e51b815260206004820152601d60248201527f416d6f756e74206d7573742062652067726561746572207468616e20300000006044820152606401610c4d565b80600501544210158015611a2d575080600601544211155b611a6b5760405162461bcd60e51b815260206004820152600f60248201526e53616c65206e6f742061637469766560881b6044820152606401610c4d565b6000838152600460205260408120546004830154909150611a8c84836131d3565b1115611acf5760405162461bcd60e51b815260206004820152601260248201527145786365656473206d617820737570706c7960701b6044820152606401610c4d565b6000838360030154611ae191906131e6565b905080341015611b2a5760405162461bcd60e51b8152602060048201526014602482015273125b9cdd59999a58da595b9d081c185e5b595b9d60621b6044820152606401610c4d565b611b45338686604051806020016040528060008152506120e0565b80341115611b8557336108fc611b5b83346131fd565b6040518115909202916000818181858888f19350505050158015611b83573d6000803e3d6000fd5b505b336001600160a01b03168360010154867fa33fd280cea731ca97b5809baf2022a90a86ce6f6cc8a8b6223a1d18f058289c878760030154604051611bd3929190918252602082015260400190565b60405180910390a45050506108166001600755565b6000818152600c6020908152604091829020805483518184028101840190945280845260609392830182828015610a9257602002820191906000526020600020905b815481526020019060010190808311611c2a5750505050509050919050565b600082815260036020526040902060010154611c6481611ded565b61113e8383611f24565b6001600160a01b03918216600090815260016020908152604080832093909416825291909152205460ff1690565b600b6020526000908152604090208054600182015460028301805492939192611cc490613029565b80601f0160208091040260200160405190810160405280929190818152602001828054611cf090613029565b8015611d3d5780601f10611d1257610100808354040283529160200191611d3d565b820191906000526020600020905b815481529060010190602001808311611d2057829003601f168201915b505050600384015460048501546005860154600687015460079097015495969295919450925060ff1688565b336001600160a01b0386168114801590611d8a5750611d888682611c6e565b155b15611dbb5760405163711bec9160e11b81526001600160a01b03808316600483015287166024820152604401610c4d565b611111868686868661213d565b60006001600160e01b03198216637965db0b60e01b14806107e457506107e4826121cb565b6111cd813361221b565b600261081682826130d8565b60065460ff1615611e275760405163d93c066560e01b815260040160405180910390fd5b565b6001600160a01b038416611e5357604051632bfa23e760e11b815260006004820152602401610c4d565b6001600160a01b038516611e7c57604051626a0d4560e21b815260006004820152602401610c4d565b611e898585858585612254565b5050505050565b6000611e9c83836116b8565b611f1c5760008381526003602090815260408083206001600160a01b03861684529091529020805460ff19166001179055611ed43390565b6001600160a01b0316826001600160a01b0316847f2f8788117e7eff1d82e926ec794901d17c78024a50270940304540a733656f0d60405160405180910390a45060016107e4565b5060006107e4565b6000611f3083836116b8565b15611f1c5760008381526003602090815260408083206001600160a01b0386168085529252808320805460ff1916905551339286917ff6391f5c32d9c69d2a47ea670b442974b53935d1edc7fd64eb21e047a839171b9190a45060016107e4565b611f996122a7565b6006805460ff191690557f5db9ee0a495bf2e6ff9c91a7834c1ba4fdd244a5e8aa4e537bd38aeae4b073aa335b6040516001600160a01b03909116815260200160405180910390a1565b60026007540361200657604051633ee5aeb560e01b815260040160405180910390fd5b6002600755565b612015611e03565b6006805460ff191660011790557f62e78cea01bee320cd4e420270b5ea74000d11b0c9f74754ebdbfc544b05a258611fc63390565b6001600160a01b0382166120735760405162ced3e160e81b815260006004820152602401610c4d565b6001600160a01b03838116600081815260016020908152604080832094871680845294825291829020805460ff191686151590811790915591519182527f17307eab39ab6107e8899845ad3d59bd9653f200f220920489ca2b5937696c31910160405180910390a3505050565b6001600160a01b03841661210a57604051632bfa23e760e11b815260006004820152602401610c4d565b60408051600180825260208201869052818301908152606082018590526080820190925290611111600087848487612254565b6001600160a01b03841661216757604051632bfa23e760e11b815260006004820152602401610c4d565b6001600160a01b03851661219057604051626a0d4560e21b815260006004820152602401610c4d565b604080516001808252602082018690528183019081526060820185905260808201909252906121c28787848487612254565b50505050505050565b60006001600160e01b03198216636cdb3d1360e11b14806121fc57506001600160e01b031982166303a24d0760e21b145b806107e457506301ffc9a760e01b6001600160e01b03198316146107e4565b61222582826116b8565b6108165760405163e2517d3f60e01b81526001600160a01b038216600482015260248101839052604401610c4d565b612260858585856122ca565b6001600160a01b03841615611e89578251339060010361229957602084810151908401516122928389898585896122d6565b5050611111565b6111118187878787876123fa565b60065460ff16611e2757604051638dfc202b60e01b815260040160405180910390fd5b61113e848484846124e3565b6001600160a01b0384163b156111115760405163f23a6e6160e01b81526001600160a01b0385169063f23a6e619061231a9089908990889088908890600401613210565b6020604051808303816000875af1925050508015612355575060408051601f3d908101601f1916820190925261235291810190613255565b60015b6123be573d808015612383576040519150601f19603f3d011682016040523d82523d6000602084013e612388565b606091505b5080516000036123b657604051632bfa23e760e11b81526001600160a01b0386166004820152602401610c4d565b805160208201fd5b6001600160e01b0319811663f23a6e6160e01b146121c257604051632bfa23e760e11b81526001600160a01b0386166004820152602401610c4d565b6001600160a01b0384163b156111115760405163bc197c8160e01b81526001600160a01b0385169063bc197c819061243e9089908990889088908890600401613272565b6020604051808303816000875af1925050508015612479575060408051601f3d908101601f1916820190925261247691810190613255565b60015b6124a7573d808015612383576040519150601f19603f3d011682016040523d82523d6000602084013e612388565b6001600160e01b0319811663bc197c8160e01b146121c257604051632bfa23e760e11b81526001600160a01b0386166004820152602401610c4d565b6124ef848484846125e0565b6001600160a01b038416612578576000805b835181101561255e576020818102848101820151908601820151600090815260049092526040822080549192839261253a9084906131d3565b9091555061254a905081846131d3565b9250508061255790613079565b9050612501565b50806005600082825461257191906131d3565b9091555050505b6001600160a01b03831661113e576000805b83518110156125cf5760208181028481018201519086018201516000908152600490925260409091208054829003905591909101906125c881613079565b905061258a565b506005805491909103905550505050565b805182511461260f5781518151604051635b05999160e01b815260048101929092526024820152604401610c4d565b3360005b835181101561271e576020818102858101820151908501909101516001600160a01b038816156126c6576000828152602081815260408083206001600160a01b038c1684529091529020548181101561269f576040516303dee4c560e01b81526001600160a01b038a166004820152602481018290526044810183905260648101849052608401610c4d565b6000838152602081815260408083206001600160a01b038d16845290915290209082900390555b6001600160a01b0387161561270b576000828152602081815260408083206001600160a01b038b168452909152812080548392906127059084906131d3565b90915550505b50508061271790613079565b9050612613565b50825160010361279f5760208301516000906020840151909150856001600160a01b0316876001600160a01b0316846001600160a01b03167fc3d58168c5ae7397731d063d5bbf3d657854427343f4c083240f7aacaa2d0f628585604051612790929190918252602082015260400190565b60405180910390a45050611e89565b836001600160a01b0316856001600160a01b0316826001600160a01b03167f4a39dc06d4c0dbc64b70af90fd698a233a518aa5d07e595d983b8c0526c8f7fb86866040516110a39291906132d0565b6001600160a01b03811681146111cd57600080fd5b6000806040838503121561281657600080fd5b8235612821816127ee565b946020939093013593505050565b6001600160e01b0319811681146111cd57600080fd5b60006020828403121561285757600080fd5b81356128628161282f565b9392505050565b634e487b7160e01b600052604160045260246000fd5b604051601f8201601f1916810167ffffffffffffffff811182821017156128a8576128a8612869565b604052919050565b600082601f8301126128c157600080fd5b813567ffffffffffffffff8111156128db576128db612869565b6128ee601f8201601f191660200161287f565b81815284602083860101111561290357600080fd5b816020850160208301376000918101602001919091529392505050565b60006020828403121561293257600080fd5b813567ffffffffffffffff81111561294957600080fd5b612955848285016128b0565b949350505050565b6000815180845260005b8181101561298357602081850181015186830182015201612967565b506000602082860101526020601f19601f83011685010191505092915050565b602081526000612862602083018461295d565b6000602082840312156129c857600080fd5b5035919050565b60006101008a83528060208401526129e98184018b61295d565b905082810360408401526129fd818a61295d565b6060840198909852505060808101949094526001600160a01b039290921660a0840152151560c083015260e0909101529392505050565b60208152815160208201526020820151604082015260006040830151610100806060850152612a6761012085018361295d565b915060608501516080850152608085015160a085015260a085015160c085015260c085015160e085015260e0850151151581850152508091505092915050565b60008060008060008060c08789031215612ac057600080fd5b86359550602087013567ffffffffffffffff811115612ade57600080fd5b612aea89828a016128b0565b96999698505050506040850135946060810135946080820135945060a09091013592509050565b60008060408385031215612b2457600080fd5b823591506020830135612b36816127ee565b809150509250929050565b600067ffffffffffffffff821115612b5b57612b5b612869565b5060051b60200190565b600082601f830112612b7657600080fd5b81356020612b8b612b8683612b41565b61287f565b82815260059290921b84018101918181019086841115612baa57600080fd5b8286015b84811015612bc55780358352918301918301612bae565b509695505050505050565b600080600080600060a08688031215612be857600080fd5b8535612bf3816127ee565b94506020860135612c03816127ee565b9350604086013567ffffffffffffffff80821115612c2057600080fd5b612c2c89838a01612b65565b94506060880135915080821115612c4257600080fd5b612c4e89838a01612b65565b93506080880135915080821115612c6457600080fd5b50612c71888289016128b0565b9150509295509295909350565b60008060408385031215612c9157600080fd5b50508035926020909101359150565b60008060408385031215612cb357600080fd5b823567ffffffffffffffff80821115612ccb57600080fd5b818501915085601f830112612cdf57600080fd5b81356020612cef612b8683612b41565b82815260059290921b84018101918181019089841115612d0e57600080fd5b948201945b83861015612d35578535612d26816127ee565b82529482019490820190612d13565b96505086013592505080821115612d4b57600080fd5b50612d5885828601612b65565b9150509250929050565b600081518084526020808501945080840160005b83811015612d9257815187529582019590820190600101612d76565b509495945050505050565b6020815260006128626020830184612d62565b600060208284031215612dc257600080fd5b8135612862816127ee565b80358015158114612ddd57600080fd5b919050565b60008060408385031215612df557600080fd5b82359150612e0560208401612dcd565b90509250929050565b602081528151602082015260006020830151610100806040850152612e3761012085018361295d565b91506040850151601f19858403016060860152612e54838261295d565b92505060608501516080850152608085015160a085015260018060a01b0360a08601511660c085015260c0850151612e9060e086018215159052565b5060e0949094015192909301919091525090565b60008060408385031215612eb757600080fd5b8235612ec2816127ee565b9150612e0560208401612dcd565b60008060008060808587031215612ee657600080fd5b843567ffffffffffffffff80821115612efe57600080fd5b612f0a888389016128b0565b95506020870135915080821115612f2057600080fd5b50612f2d878288016128b0565b949794965050505060408301359260600135919050565b60008060408385031215612f5757600080fd5b8235612f62816127ee565b91506020830135612b36816127ee565b60006101008a8352896020840152806040840152612f928184018a61295d565b60608401989098525050608081019490945260a084019290925260c0830152151560e0909101529392505050565b600080600080600060a08688031215612fd857600080fd5b8535612fe3816127ee565b94506020860135612ff3816127ee565b93506040860135925060608601359150608086013567ffffffffffffffff81111561301d57600080fd5b612c71888289016128b0565b600181811c9082168061303d57607f821691505b60208210810361305d57634e487b7160e01b600052602260045260246000fd5b50919050565b634e487b7160e01b600052601160045260246000fd5b60006001820161308b5761308b613063565b5060010190565b601f82111561117757600081815260208120601f850160051c810160208610156130b95750805b601f850160051c820191505b81811015611111578281556001016130c5565b815167ffffffffffffffff8111156130f2576130f2612869565b613106816131008454613029565b84613092565b602080601f83116001811461313b57600084156131235750858301515b600019600386901b1c1916600185901b178555611111565b600085815260208120601f198616915b8281101561316a5788860151825594840194600190910190840161314b565b50858210156131885787850151600019600388901b60f8161c191681555b5050505050600190811b01905550565b6060815260006131ab606083018661295d565b60208301949094525060400152919050565b634e487b7160e01b600052603260045260246000fd5b808201808211156107e4576107e4613063565b80820281158282048414176107e4576107e4613063565b818103818111156107e4576107e4613063565b6001600160a01b03868116825285166020820152604081018490526060810183905260a06080820181905260009061324a9083018461295d565b979650505050505050565b60006020828403121561326757600080fd5b81516128628161282f565b6001600160a01b0386811682528516602082015260a06040820181905260009061329e90830186612d62565b82810360608401526132b08186612d62565b905082810360808401526132c4818561295d565b98975050505050505050565b6040815260006132e36040830185612d62565b82810360208401526132f58185612d62565b9594505050505056fea49807205ce4d355092ef5a8a18f56e8913cf4a201fbe287825b095693c21775a26469706673582212203859b87473ba84dc50a3d85b67cef0af2bf85f39767960ff279aef4ae7ae9b7464736f6c63430008140033",
  "linkReferences": {},
  "deployedLinkReferences": {}
}