{
  "_format": "hh-sol-artifact-1",
  "contractName": "TicketNFT",
  "sourceName": "contracts/TicketNFT.sol",
  "abi": [
    {
      "inputs": [
        {
          "internalType": "string",
          "name": "_baseURI",
          "type": "string"
        },
        {
          "internalType": "address",
          "name": "_admin",
          "type": "address"
        }
      ],
      "stateMutability": "nonpayable",
      "type": "constructor"
    },
    {
      "inputs": [],
      "name": "AccessControlBadConfirmation",
      "type": "error"
    },
    {
      "inputs": [
        {
          "internalType": "address",
          "name": "account",
          "type": "address"
        },
        {
          "internalType": "bytes32",
          "name": "neededRole",
          "type": "bytes32"
        }
      ],
      "name": "AccessControlUnauthorizedAccount",
      "type": "error"
    },
    {
      "inputs": [
        {
          "internalType": "address",
          "name": "sender",
          "type": "address"
        },
        {
          "internalType": "uint256",
          "name": "balance",
          "type": "uint256"
        },
        {
          "internalType": "uint256",
          "name": "needed",
          "type": "uint256"
        },
        {
          "internalType": "uint256",
          "name": "tokenId",
          "type": "uint256"
        }
      ],
      "name": "ERC1155InsufficientBalance",
      "type": "error"
    },
    {
      "inputs": [
        {
          "internalType": "address",
          "name": "approver",
          "type": "address"
        }
      ],
      "name": "ERC1155InvalidApprover",
      "type": "error"
    },
    {
      "inputs": [
        {
          "internalType": "uint256",
          "name": "idsLength",
          "type": "uint256"
        },
        {
          "internalType": "uint256",
          "name": "valuesLength",
          "type": "uint256"
        }
      ],
      "name": "ERC1155InvalidArrayLength",
      "type": "error"
    },
    {
      "inputs": [
        {
          "internalType": "address",
          "name": "operator",
          "type": "address"
        }
      ],
      "name": "ERC1155InvalidOperator",
      "type": "error"
    },
    {
      "inputs": [
        {
          "internalType": "address",
          "name": "receiver",
          "type": "address"
        }
      ],
      "name": "ERC1155InvalidReceiver",
      "type": "error"
    },
    {
      "inputs": [
        {
          "internalType": "address",
          "name": "sender",
          "type": "address"
        }
      ],
      "name": "ERC1155InvalidSender",
      "type": "error"
    },
    {
      "inputs": [
        {
          "internalType": "address",
          "name": "operator",
          "type": "address"
        },
        {
          "internalType": "address",
          "name": "owner",
          "type": "address"
        }
      ],
      "name": "ERC1155MissingApprovalForAll",
      "type": "error"
    },
    {
      "inputs": [],
      "name": "EnforcedPause",
      "type": "error"
    },
    {
      "inputs": [],
      "name": "ExpectedPause",
      "type": "error"
    },
    {
      "inputs": [],
      "name": "ReentrancyGuardReentrantCall",
      "type": "error"
    },
    {
      "anonymous": false,
      "inputs": [
        {
          "indexed": true,
          "internalType": "address",
          "name": "account",
          "type": "address"
        },
        {
          "indexed": true,
          "internalType": "address",
          "name": "operator",
          "type": "address"
        },
        {
          "indexed": false,
          "internalType": "bool",
          "name": "approved",
          "type": "bool"
        }
      ],
      "name": "ApprovalForAll",
      "type": "event"
    },
    {
      "anonymous": false,
      "inputs": [
        {
          "indexed": true,
          "internalType": "uint256",
          "name": "eventId",
          "type": "uint256"
        },
        {
          "indexed": false,
          "internalType": "string",
          "name": "name",
          "type": "string"
        },
        {
          "indexed": true,
          "internalType": "address",
          "name": "organizer",
          "type": "address"
        },
        {
          "indexed": false,
          "internalType": "uint256",
          "name": "startTime",
          "type": "uint256"
        },
        {
          "indexed": false,
          "internalType": "uint256",
          "name": "endTime",
          "type": "uint256"
        }
      ],
      "name": "EventCreated",
      "type": "event"
    },
    {
      "anonymous": false,
      "inputs": [
        {
          "indexed": true,
          "internalType": "uint256",
          "name": "eventId",
          "type": "uint256"
        },
        {
          "indexed": false,
          "internalType": "bool",
          "name": "isActive",
          "type": "bool"
        }
      ],
      "name": "EventUpdated",
      "type": "event"
    },
    {
      "anonymous": false,
      "inputs": [
        {
          "indexed": true,
          "internalType": "address",
          "name": "to",
          "type": "address"
        },
        {
          "indexed": false,
          "internalType": "uint256",
          "name": "amount",
          "type": "uint256"
        },
        {
          "indexed": false,
          "internalType": "uint256",
          "name": "timestamp",
          "type": "uint256"
        }
      ],
      "name": "FundsWithdrawn",
      "type": "event"
    },
    {
      "anonymous": false,
      "inputs": [
        {
          "indexed": false,
          "internalType": "address",
          "name": "account",
          "type": "address"
        }
      ],
      "name": "Paused",
      "type": "event"
    },
    {
      "anonymous": false,
      "inputs": [
        {
          "indexed": true,
          "internalType": "bytes32",
          "name": "role",
          "type": "bytes32"
        },
        {
          "indexed": true,
          "internalType": "bytes32",
          "name": "previousAdminRole",
          "type": "bytes32"
        },
        {
          "indexed": true,
          "internalType": "bytes32",
          "name": "newAdminRole",
          "type": "bytes32"
        }
      ],
      "name": "RoleAdminChanged",
      "type": "event"
    },
    {
      "anonymous": false,
      "inputs": [
        {
          "indexed": true,
          "internalType": "bytes32",
          "name": "role",
          "type": "bytes32"
        },
        {
          "indexed": true,
          "internalType": "address",
          "name": "account",
          "type": "address"
        },
        {
          "indexed": true,
          "internalType": "address",
          "name": "sender",
          "type": "address"
        }
      ],
      "name": "RoleGranted",
      "type": "event"
    },
    {
      "anonymous": false,
      "inputs": [
        {
          "indexed": true,
          "internalType": "bytes32",
          "name": "role",
          "type": "bytes32"
        },
        {
          "indexed": true,
          "internalType": "address",
          "name": "account",
          "type": "address"
        },
        {
          "indexed": true,
          "internalType": "address",
          "name": "sender",
          "type": "address"
        }
      ],
      "name": "RoleRevoked",
      "type": "event"
    },
    {
      "anonymous": false,
      "inputs": [
        {
          "indexed": true,
          "internalType": "uint256",
          "name": "tokenId",
          "type": "uint256"
        },
        {
          "indexed": true,
          "internalType": "uint256",
          "name": "eventId",
          "type": "uint256"
        },
        {
          "indexed": true,
          "internalType": "address",
          "name": "holder",
          "type": "address"
        },
        {
          "indexed": false,
          "internalType": "uint256",
          "name": "timestamp",
          "type": "uint256"
        }
      ],
      "name": "TicketCheckedIn",
      "type": "event"
    },
    {
      "anonymous": false,
      "inputs": [
        {
          "indexed": true,
          "internalType": "uint256",
          "name": "tokenId",
          "type": "uint256"
        },
        {
          "indexed": true,
          "internalType": "uint256",
          "name": "eventId",
          "type": "uint256"
        },
        {
          "indexed": true,
          "internalType": "address",
          "name": "buyer",
          "type": "address"
        },
        {
          "indexed": false,
          "internalType": "uint256",
          "name": "amount",
          "type": "uint256"
        },
        {
          "indexed": false,
          "internalType": "uint256",
          "name": "price",
          "type": "uint256"
        }
      ],
      "name": "TicketPurchased",
      "type": "event"
    },
    {
      "anonymous": false,
      "inputs": [
        {
          "indexed": true,
          "internalType": "uint256",
          "name": "tokenId",
          "type": "uint256"
        },
        {
          "indexed": true,
          "internalType": "uint256",
          "name": "eventId",
          "type": "uint256"
        },
        {
          "indexed": false,
          "internalType": "string",
          "name": "name",
          "type": "string"
        },
        {
          "indexed": false,
          "internalType": "uint256",
          "name": "price",
          "type": "uint256"
        },
        {
          "indexed": false,
          "internalType": "uint256",
          "name": "maxSupply",
          "type": "uint256"
        }
      ],
      "name": "TicketTypeCreated",
      "type": "event"
    },
    {
      "anonymous": false,
      "inputs": [
        {
          "indexed": true,
          "internalType": "address",
          "name": "operator",
          "type": "address"
        },
        {
          "indexed": true,
          "internalType": "address",
          "name": "from",
          "type": "address"
        },
        {
          "indexed": true,
          "internalType": "address",
          "name": "to",
          "type": "address"
        },
        {
          "indexed": false,
          "internalType": "uint256[]",
          "name": "ids",
          "type": "uint256[]"
        },
        {
          "indexed": false,
          "internalType": "uint256[]",
          "name": "values",
          "type": "uint256[]"
        }
      ],
      "name": "TransferBatch",
      "type": "event"
    },
    {
      "anonymous": false,
      "inputs": [
        {
          "indexed": true,
          "internalType": "address",
          "name": "operator",
          "type": "address"
        },
        {
          "indexed": true,
          "internalType": "address",
          "name": "from",
          "type": "address"
        },
        {
          "indexed": true,
          "internalType": "address",
          "name": "to",
          "type": "address"
        },
        {
          "indexed": false,
          "internalType": "uint256",
          "name": "id",
          "type": "uint256"
        },
        {
          "indexed": false,
          "internalType": "uint256",
          "name": "value",
          "type": "uint256"
        }
      ],
      "name": "TransferSingle",
      "type": "event"
    },
    {
      "anonymous": false,
      "inputs": [
        {
          "indexed": false,
          "internalType": "string",
          "name": "value",
          "type": "string"
        },
        {
          "indexed": true,
          "internalType": "uint256",
          "name": "id",
          "type": "uint256"
        }
      ],
      "name": "URI",
      "type": "event"
    },
    {
      "anonymous": false,
      "inputs": [
        {
          "indexed": false,
          "internalType": "address",
          "name": "account",
          "type": "address"
        }
      ],
      "name": "Unpaused",
      "type": "event"
    },
    {
      "inputs": [],
      "name": "ADMIN_ROLE",
      "outputs": [
        {
          "internalType": "bytes32",
          "name": "",
          "type": "bytes32"
        }
      ],
      "stateMutability": "view",
      "type": "function"
    },
    {
      "inputs": [],
      "name": "DEFAULT_ADMIN_ROLE",
      "outputs": [
        {
          "internalType": "bytes32",
          "name": "",
          "type": "bytes32"
        }
      ],
      "stateMutability": "view",
      "type": "function"
    },
    {
      "inputs": [],
      "name": "MINTER_ROLE",
      "outputs": [
        {
          "internalType": "bytes32",
          "name": "",
          "type": "bytes32"
        }
      ],
      "stateMutability": "view",
      "type": "function"
    },
    {
      "inputs": [],
      "name": "ORGANIZER_ROLE",
      "outputs": [
        {
          "internalType": "bytes32",
          "name": "",
          "type": "bytes32"
        }
      ],
      "stateMutability": "view",
      "type": "function"
    },
    {
      "inputs": [
        {
          "internalType": "address",
          "name": "account",
          "type": "address"
        },
        {
          "internalType": "uint256",
          "name": "id",
          "type": "uint256"
        }
      ],
      "name": "balanceOf",
      "outputs": [
        {
          "internalType": "uint256",
          "name": "",
          "type": "uint256"
        }
      ],
      "stateMutability": "view",
      "type": "function"
    },
    {
      "inputs": [
        {
          "internalType": "address[]",
          "name": "accounts",
          "type": "address[]"
        },
        {
          "internalType": "uint256[]",
          "name": "ids",
          "type": "uint256[]"
        }
      ],
      "name": "balanceOfBatch",
      "outputs": [
        {
          "internalType": "uint256[]",
          "name": "",
          "type": "uint256[]"
        }
      ],
      "stateMutability": "view",
      "type": "function"
    },
    {
      "inputs": [
        {
          "internalType": "uint256",
          "name": "_tokenId",
          "type": "uint256"
        },
        {
          "internalType": "address",
          "name": "_holder",
          "type": "address"
        }
      ],
      "name": "checkInTicket",
      "outputs": [],
      "stateMutability": "nonpayable",
      "type": "function"
    },
    {
      "inputs": [
        {
          "internalType": "string",
          "name": "_name",
          "type": "string"
        },
        {
          "internalType": "string",
          "name": "_description",
          "type": "string"
        },
        {
          "internalType": "uint256",
          "name": "_startTime",
          "type": "uint256"
        },
        {
          "internalType": "uint256",
          "name": "_endTime",
          "type": "uint256"
        }
      ],
      "name": "createEvent",
      "outputs": [
        {
          "internalType": "uint256",
          "name": "",
          "type": "uint256"
        }
      ],
      "stateMutability": "nonpayable",
      "type": "function"
    },
    {
      "inputs": [
        {
          "internalType": "uint256",
          "name": "_eventId",
          "type": "uint256"
        },
        {
          "internalType": "string",
          "name": "_name",
          "type": "string"
        },
        {
          "internalType": "uint256",
          "name": "_price",
          "type": "uint256"
        },
        {
          "internalType": "uint256",
          "name": "_maxSupply",
          "type": "uint256"
        },
        {
          "internalType": "uint256",
          "name": "_startSaleTime",
          "type": "uint256"
        },
        {
          "internalType": "uint256",
          "name": "_endSaleTime",
          "type": "uint256"
        }
      ],
      "name": "createTicketType",
      "outputs": [
        {
          "internalType": "uint256",
          "name": "",
          "type": "uint256"
        }
      ],
      "stateMutability": "nonpayable",
      "type": "function"
    },
    {
      "inputs": [
        {
          "internalType": "uint256",
          "name": "",
          "type": "uint256"
        },
        {
          "internalType": "uint256",
          "name": "",
          "type": "uint256"
        }
      ],
      "name": "eventTicketTypes",
      "outputs": [
        {
          "internalType": "uint256",
          "name": "",
          "type": "uint256"
        }
      ],
      "stateMutability": "view",
      "type": "function"
    },
    {
      "inputs": [
        {
          "internalType": "uint256",
          "name": "",
          "type": "uint256"
        }
      ],
      "name": "events",
      "outputs": [
        {
          "internalType": "uint256",
          "name": "eventId",
          "type": "uint256"
        },
        {
          "internalType": "string",
          "name": "name",
          "type": "string"
        },
        {
          "internalType": "string",
          "name": "description",
          "type": "string"
        },
        {
          "internalType": "uint256",
          "name": "startTime",
          "type": "uint256"
        },
        {
          "internalType": "uint256",
          "name": "endTime",
          "type": "uint256"
        },
        {
          "internalType": "address",
          "name": "organizer",
          "type": "address"
        },
        {
          "internalType": "bool",
          "name": "isActive",
          "type": "bool"
        },
        {
          "internalType": "uint256",
          "name": "createdAt",
          "type": "uint256"
        }
      ],
      "stateMutability": "view",
      "type": "function"
    },
    {
      "inputs": [
        {
          "internalType": "uint256",
          "name": "id",
          "type": "uint256"
        }
      ],
      "name": "exists",
      "outputs": [
        {
          "internalType": "bool",
          "name": "",
          "type": "bool"
        }
      ],
      "stateMutability": "view",
      "type": "function"
    },
    {
      "inputs": [],
      "name": "getBalance",
      "outputs": [
        {
          "internalType": "uint256",
          "name": "",
          "type": "uint256"
        }
      ],
      "stateMutability": "view",
      "type": "function"
    },
    {
      "inputs": [
        {
          "internalType": "uint256",
          "name": "_eventId",
          "type": "uint256"
        }
      ],
      "name": "getEvent",
      "outputs": [
        {
          "components": [
            {
              "internalType": "uint256",
              "name": "eventId",
              "type": "uint256"
            },
            {
              "internalType": "string",
              "name": "name",
              "type": "string"
            },
            {
              "internalType": "string",
              "name": "description",
              "type": "string"
            },
            {
              "internalType": "uint256",
              "name": "startTime",
              "type": "uint256"
            },
            {
              "internalType": "uint256",
              "name": "endTime",
              "type": "uint256"
            },
            {
              "internalType": "address",
              "name": "organizer",
              "type": "address"
            },
            {
              "internalType": "bool",
              "name": "isActive",
              "type": "bool"
            },
            {
              "internalType": "uint256",
              "name": "createdAt",
              "type": "uint256"
            }
          ],
          "internalType": "struct TicketNFT.Event",
          "name": "",
          "type": "tuple"
        }
      ],
      "stateMutability": "view",
      "type": "function"
    },
    {
      "inputs": [
        {
          "internalType": "uint256",
          "name": "_eventId",
          "type": "uint256"
        }
      ],
      "name": "getEventTicketTypes",
      "outputs": [
        {
          "internalType": "uint256[]",
          "name": "",
          "type": "uint256[]"
        }
      ],
      "stateMutability": "view",
      "type": "function"
    },
    {
      "inputs": [
        {
          "internalType": "bytes32",
          "name": "role",
          "type": "bytes32"
        }
      ],
      "name": "getRoleAdmin",
      "outputs": [
        {
          "internalType": "bytes32",
          "name": "",
          "type": "bytes32"
        }
      ],
      "stateMutability": "view",
      "type": "function"
    },
    {
      "inputs": [
        {
          "internalType": "uint256",
          "name": "_tokenId",
          "type": "uint256"
        }
      ],
      "name": "getTicketType",
      "outputs": [
        {
          "components": [
            {
              "internalType": "uint256",
              "name": "tokenId",
              "type": "uint256"
            },
            {
              "internalType": "uint256",
              "name": "eventId",
              "type": "uint256"
            },
            {
              "internalType": "string",
              "name": "name",
              "type": "string"
            },
            {
              "internalType": "uint256",
              "name": "price",
              "type": "uint256"
            },
            {
              "internalType": "uint256",
              "name": "maxSupply",
              "type": "uint256"
            },
            {
              "internalType": "uint256",
              "name": "startSaleTime",
              "type": "uint256"
            },
            {
              "internalType": "uint256",
              "name": "endSaleTime",
              "type": "uint256"
            },
            {
              "internalType": "bool",
              "name": "isActive",
              "type": "bool"
            }
          ],
          "internalType": "struct TicketNFT.TicketType",
          "name": "",
          "type": "tuple"
        }
      ],
      "stateMutability": "view",
      "type": "function"
    },
    {
      "inputs": [
        {
          "internalType": "bytes32",
          "name": "role",
          "type": "bytes32"
        },
        {
          "internalType": "address",
          "name": "account",
          "type": "address"
        }
      ],
      "name": "grantRole",
      "outputs": [],
      "stateMutability": "nonpayable",
      "type": "function"
    },
    {
      "inputs": [
        {
          "internalType": "bytes32",
          "name": "role",
          "type": "bytes32"
        },
        {
          "internalType": "address",
          "name": "account",
          "type": "address"
        }
      ],
      "name": "hasRole",
      "outputs": [
        {
          "internalType": "bool",
          "name": "",
          "type": "bool"
        }
      ],
      "stateMutability": "view",
      "type": "function"
    },
    {
      "inputs": [
        {
          "internalType": "address",
          "name": "account",
          "type": "address"
        },
        {
          "internalType": "address",
          "name": "operator",
          "type": "address"
        }
      ],
      "name": "isApprovedForAll",
      "outputs": [
        {
          "internalType": "bool",
          "name": "",
          "type": "bool"
        }
      ],
      "stateMutability": "view",
      "type": "function"
    },
    {
      "inputs": [],
      "name": "name",
      "outputs": [
        {
          "internalType": "string",
          "name": "",
          "type": "string"
        }
      ],
      "stateMutability": "view",
      "type": "function"
    },
    {
      "inputs": [],
      "name": "pause",
      "outputs": [],
      "stateMutability": "nonpayable",
      "type": "function"
    },
    {
      "inputs": [],
      "name": "paused",
      "outputs": [
        {
          "internalType": "bool",
          "name": "",
          "type": "bool"
        }
      ],
      "stateMutability": "view",
      "type": "function"
    },
    {
      "inputs": [
        {
          "internalType": "uint256",
          "name": "_tokenId",
          "type": "uint256"
        },
        {
          "internalType": "uint256",
          "name": "_amount",
          "type": "uint256"
        }
      ],
      "name": "purchaseTicket",
      "outputs": [],
      "stateMutability": "payable",
      "type": "function"
    },
    {
      "inputs": [
        {
          "internalType": "bytes32",
          "name": "role",
          "type": "bytes32"
        },
        {
          "internalType": "address",
          "name": "callerConfirmation",
          "type": "address"
        }
      ],
      "name": "renounceRole",
      "outputs": [],
      "stateMutability": "nonpayable",
      "type": "function"
    },
    {
      "inputs": [
        {
          "internalType": "bytes32",
          "name": "role",
          "type": "bytes32"
        },
        {
          "internalType": "address",
          "name": "account",
          "type": "address"
        }
      ],
      "name": "revokeRole",
      "outputs": [],
      "stateMutability": "nonpayable",
      "type": "function"
    },
    {
      "inputs": [
        {
          "internalType": "address",
          "name": "from",
          "type": "address"
        },
        {
          "internalType": "address",
          "name": "to",
          "type": "address"
        },
        {
          "internalType": "uint256[]",
          "name": "ids",
          "type": "uint256[]"
        },
        {
          "internalType": "uint256[]",
          "name": "values",
          "type": "uint256[]"
        },
        {
          "internalType": "bytes",
          "name": "data",
          "type": "bytes"
        }
      ],
      "name": "safeBatchTransferFrom",
      "outputs": [],
      "stateMutability": "nonpayable",
      "type": "function"
    },
    {
      "inputs": [
        {
          "internalType": "address",
          "name": "from",
          "type": "address"
        },
        {
          "internalType": "address",
          "name": "to",
          "type": "address"
        },
        {
          "internalType": "uint256",
          "name": "id",
          "type": "uint256"
        },
        {
          "internalType": "uint256",
          "name": "value",
          "type": "uint256"
        },
        {
          "internalType": "bytes",
          "name": "data",
          "type": "bytes"
        }
      ],
      "name": "safeTransferFrom",
      "outputs": [],
      "stateMutability": "nonpayable",
      "type": "function"
    },
    {
      "inputs": [
        {
          "internalType": "address",
          "name": "operator",
          "type": "address"
        },
        {
          "internalType": "bool",
          "name": "approved",
          "type": "bool"
        }
      ],
      "name": "setApprovalForAll",
      "outputs": [],
      "stateMutability": "nonpayable",
      "type": "function"
    },
    {
      "inputs": [
        {
          "internalType": "string",
          "name": "_newURI",
          "type": "string"
        }
      ],
      "name": "setURI",
      "outputs": [],
      "stateMutability": "nonpayable",
      "type": "function"
    },
    {
      "inputs": [
        {
          "internalType": "bytes4",
          "name": "interfaceId",
          "type": "bytes4"
        }
      ],
      "name": "supportsInterface",
      "outputs": [
        {
          "internalType": "bool",
          "name": "",
          "type": "bool"
        }
      ],
      "stateMutability": "view",
      "type": "function"
    },
    {
      "inputs": [],
      "name": "symbol",
      "outputs": [
        {
          "internalType": "string",
          "name": "",
          "type": "string"
        }
      ],
      "stateMutability": "view",
      "type": "function"
    },
    {
      "inputs": [
        {
          "internalType": "uint256",
          "name": "",
          "type": "uint256"
        }
      ],
      "name": "ticketTypes",
      "outputs": [
        {
          "internalType": "uint256",
          "name": "tokenId",
          "type": "uint256"
        },
        {
          "internalType": "uint256",
          "name": "eventId",
          "type": "uint256"
        },
        {
          "internalType": "string",
          "name": "name",
          "type": "string"
        },
        {
          "internalType": "uint256",
          "name": "price",
          "type": "uint256"
        },
        {
          "internalType": "uint256",
          "name": "maxSupply",
          "type": "uint256"
        },
        {
          "internalType": "uint256",
          "name": "startSaleTime",
          "type": "uint256"
        },
        {
          "internalType": "uint256",
          "name": "endSaleTime",
          "type": "uint256"
        },
        {
          "internalType": "bool",
          "name": "isActive",
          "type": "bool"
        }
      ],
      "stateMutability": "view",
      "type": "function"
    },
    {
      "inputs": [],
      "name": "totalSupply",
      "outputs": [
        {
          "internalType": "uint256",
          "name": "",
          "type": "uint256"
        }
      ],
      "stateMutability": "view",
      "type": "function"
    },
    {
      "inputs": [
        {
          "internalType": "uint256",
          "name": "id",
          "type": "uint256"
        }
      ],
      "name": "totalSupply",
      "outputs": [
        {
          "internalType": "uint256",
          "name": "",
          "type": "uint256"
        }
      ],
      "stateMutability": "view",
      "type": "function"
    },
    {
      "inputs": [],
      "name": "unpause",
      "outputs": [],
      "stateMutability": "nonpayable",
      "type": "function"
    },
    {
      "inputs": [
        {
          "internalType": "uint256",
          "name": "_eventId",
          "type": "uint256"
        },
        {
          "internalType": "bool",
          "name": "_isActive",
          "type": "bool"
        }
      ],
      "name": "updateEventStatus",
      "outputs": [],
      "stateMutability": "nonpayable",
      "type": "function"
    },
    {
      "inputs": [
        {
          "internalType": "uint256",
          "name": "_tokenId",
          "type": "uint256"
        },
        {
          "internalType": "uint256",
          "name": "_newPrice",
          "type": "uint256"
        }
      ],
      "name": "updateTicketPrice",
      "outputs": [],
      "stateMutability": "nonpayable",
      "type": "function"
    },
    {
      "inputs": [
        {
          "internalType": "uint256",
          "name": "_tokenId",
          "type": "uint256"
        },
        {
          "internalType": "uint256",
          "name": "_startSaleTime",
          "type": "uint256"
        },
        {
          "internalType": "uint256",
          "name": "_endSaleTime",
          "type": "uint256"
        }
      ],
      "name": "updateTicketSaleTimes",
      "outputs": [],
      "stateMutability": "nonpayable",
      "type": "function"
    },
    {
      "inputs": [
        {
          "internalType": "uint256",
          "name": "",
          "type": "uint256"
        }
      ],
      "name": "uri",
      "outputs": [
        {
          "internalType": "string",
          "name": "",
          "type": "string"
        }
      ],
      "stateMutability": "view",
      "type": "function"
    },
    {
      "inputs": [
        {
          "internalType": "uint256",
          "name": "",
          "type": "uint256"
        }
      ],
      "name": "usedTickets",
      "outputs": [
        {
          "internalType": "bool",
          "name": "",
          "type": "bool"
        }
      ],
      "stateMutability": "view",
      "type": "function"
    },
    {
      "inputs": [
        {
          "internalType": "address payable",
          "name": "_to",
          "type": "address"
        }
      ],
      "name": "withdraw",
      "outputs": [],
      "stateMutability": "nonpayable",
      "type": "function"
    }
  ],
  "bytecode": "0x60c0604052601060809081526f115d995b9d08151a58dad95d0813919560821b60a052600e906200003190826200027b565b50604080518082019091526006815265151250d2d15560d21b6020820152600f906200005e90826200027b565b503480156200006c57600080fd5b5060405162003a3c38038062003a3c8339810160408190526200008f9162000364565b816200009b8162000111565b506001600755620000ae60008262000123565b50620000db7fa49807205ce4d355092ef5a8a18f56e8913cf4a201fbe287825b095693c217758262000123565b50620001087f9f2df0fed2c77648de5860a4cc508cd0818c85b8b8a1ab4ceeef8d981c8956a68262000123565b5050506200044c565b60026200011f82826200027b565b5050565b60008281526003602090815260408083206001600160a01b038516845290915281205460ff16620001cc5760008381526003602090815260408083206001600160a01b03861684529091529020805460ff19166001179055620001833390565b6001600160a01b0316826001600160a01b0316847f2f8788117e7eff1d82e926ec794901d17c78024a50270940304540a733656f0d60405160405180910390a4506001620001d0565b5060005b92915050565b634e487b7160e01b600052604160045260246000fd5b600181811c908216806200020157607f821691505b6020821081036200022257634e487b7160e01b600052602260045260246000fd5b50919050565b601f8211156200027657600081815260208120601f850160051c81016020861015620002515750805b601f850160051c820191505b8181101562000272578281556001016200025d565b5050505b505050565b81516001600160401b03811115620002975762000297620001d6565b620002af81620002a88454620001ec565b8462000228565b602080601f831160018114620002e75760008415620002ce5750858301515b600019600386901b1c1916600185901b17855562000272565b600085815260208120601f198616915b828110156200031857888601518255948401946001909101908401620002f7565b5085821015620003375787850151600019600388901b60f8161c191681555b5050505050600190811b01905550565b80516001600160a01b03811681146200035f57600080fd5b919050565b600080604083850312156200037857600080fd5b82516001600160401b03808211156200039057600080fd5b818501915085601f830112620003a557600080fd5b815181811115620003ba57620003ba620001d6565b604051601f8201601f19908116603f01168101908382118183101715620003e557620003e5620001d6565b816040528281526020935088848487010111156200040257600080fd5b600091505b8282101562000426578482018401518183018501529083019062000407565b60008484830101528096505050506200044181860162000347565b925050509250929050565b6135e0806200045c6000396000f3fe6080604052600436106102505760003560e01c806354484fb011610139578063a22cb465116100b6578063d3c598761161007a578063d3c5987614610730578063d539139314610750578063d547741f14610784578063e985e9c5146107a4578063e9dbebce146107c4578063f242432a146107f857600080fd5b8063a22cb46514610690578063b936cc22146106b0578063bce062b9146106d0578063bd85b039146106f0578063bdbbb0cb1461071d57600080fd5b80637909cb59116100fd5780637909cb59146105fd5780638456cb591461063157806391d148541461064657806395d89b4114610666578063a217fddf1461067b57600080fd5b806354484fb0146105465780635c975abb146105665780636d1884e01461057e57806371efdc21146105ab57806375b238fc146105db57600080fd5b8063248a9ca3116101d257806336568abe1161019657806336568abe14610475578063365f6281146104955780633f4ba83a146104b55780634e1273f4146104ca5780634f558e79146104f757806351cff8d91461052657600080fd5b8063248a9ca3146103c557806325103a9c146103f55780632c49f35e146104155780632eb2c2d6146104355780632f2ff15d1461045557600080fd5b80630e89341c116102195780630e89341c1461033057806312065fe014610350578063163e0f461461036357806318160ddd14610390578063235fd62b146103a557600080fd5b8062fdd58e1461025557806301ffc9a71461028857806302fe5305146102b857806306fdde03146102da5780630b791430146102fc575b600080fd5b34801561026157600080fd5b50610275610270366004612a0b565b610818565b6040519081526020015b60405180910390f35b34801561029457600080fd5b506102a86102a3366004612a4d565b610840565b604051901515815260200161027f565b3480156102c457600080fd5b506102d86102d3366004612b28565b61084b565b005b3480156102e657600080fd5b506102ef610870565b60405161027f9190612bab565b34801561030857600080fd5b5061031c610317366004612bbe565b6108fe565b60405161027f989796959493929190612bd7565b34801561033c57600080fd5b506102ef61034b366004612bbe565b610a60565b34801561035c57600080fd5b5047610275565b34801561036f57600080fd5b5061038361037e366004612bbe565b610af4565b60405161027f9190612c3c565b34801561039c57600080fd5b50600554610275565b3480156103b157600080fd5b506102756103c0366004612caf565b610c41565b3480156103d157600080fd5b506102756103e0366004612bbe565b60009081526003602052604090206001015490565b34801561040157600080fd5b506102d8610410366004612d19565b610f23565b34801561042157600080fd5b506102d8610430366004612d49565b6110e1565b34801561044157600080fd5b506102d8610450366004612dfa565b6111c7565b34801561046157600080fd5b506102d8610470366004612d19565b61122e565b34801561048157600080fd5b506102d8610490366004612d19565b611259565b3480156104a157600080fd5b506102756104b0366004612d49565b611291565b3480156104c157600080fd5b506102d86112c2565b3480156104d657600080fd5b506104ea6104e5366004612ea8565b6112e5565b60405161027f9190612fa5565b34801561050357600080fd5b506102a8610512366004612bbe565b600090815260046020526040902054151590565b34801561053257600080fd5b506102d8610541366004612fb8565b6113ba565b34801561055257600080fd5b506102d8610561366004612fea565b6114ec565b34801561057257600080fd5b5060065460ff166102a8565b34801561058a57600080fd5b5061059e610599366004612bbe565b6115a2565b60405161027f9190613016565b3480156105b757600080fd5b506102a86105c6366004612bbe565b600d6020526000908152604090205460ff1681565b3480156105e757600080fd5b5061027560008051602061358b83398151915281565b34801561060957600080fd5b506102757f4d2e7a1e3f5dd6e203f087b15756ccf0e4ccd947fe1b639a38540089a1e47f6381565b34801561063d57600080fd5b506102d861178c565b34801561065257600080fd5b506102a8610661366004612d19565b6117ac565b34801561067257600080fd5b506102ef6117d7565b34801561068757600080fd5b50610275600081565b34801561069c57600080fd5b506102d86106ab3660046130ac565b6117e4565b3480156106bc57600080fd5b506102d86106cb3660046130d8565b6117ef565b3480156106dc57600080fd5b506102756106eb366004613104565b61192c565b3480156106fc57600080fd5b5061027561070b366004612bbe565b60009081526004602052604090205490565b6102d861072b366004612d49565b611b8b565b34801561073c57600080fd5b506104ea61074b366004612bbe565b611df0565b34801561075c57600080fd5b506102757f9f2df0fed2c77648de5860a4cc508cd0818c85b8b8a1ab4ceeef8d981c8956a681565b34801561079057600080fd5b506102d861079f366004612d19565b611e51565b3480156107b057600080fd5b506102a86107bf366004613178565b611e76565b3480156107d057600080fd5b506107e46107df366004612bbe565b611ea4565b60405161027f9897969594939291906131a6565b34801561080457600080fd5b506102d86108133660046131f4565b611f71565b6000818152602081815260408083206001600160a01b03861684529091529020545b92915050565b600061083a82611fd0565b60008051602061358b83398151915261086381611ff5565b61086c82611fff565b5050565b600e805461087d9061325d565b80601f01602080910402602001604051908101604052809291908181526020018280546108a99061325d565b80156108f65780601f106108cb576101008083540402835291602001916108f6565b820191906000526020600020905b8154815290600101906020018083116108d957829003601f168201915b505050505081565b600a60205260009081526040902080546001820180549192916109209061325d565b80601f016020809104026020016040519081016040528092919081815260200182805461094c9061325d565b80156109995780601f1061096e57610100808354040283529160200191610999565b820191906000526020600020905b81548152906001019060200180831161097c57829003601f168201915b5050505050908060020180546109ae9061325d565b80601f01602080910402602001604051908101604052809291908181526020018280546109da9061325d565b8015610a275780601f106109fc57610100808354040283529160200191610a27565b820191906000526020600020905b815481529060010190602001808311610a0a57829003601f168201915b50505050600383015460048401546005850154600690950154939491939092506001600160a01b03821691600160a01b900460ff169088565b606060028054610a6f9061325d565b80601f0160208091040260200160405190810160405280929190818152602001828054610a9b9061325d565b8015610ae85780601f10610abd57610100808354040283529160200191610ae8565b820191906000526020600020905b815481529060010190602001808311610acb57829003601f168201915b50505050509050919050565b610b3e604051806101000160405280600081526020016000815260200160608152602001600081526020016000815260200160008152602001600081526020016000151581525090565b600b6000838152602001908152602001600020604051806101000160405290816000820154815260200160018201548152602001600282018054610b819061325d565b80601f0160208091040260200160405190810160405280929190818152602001828054610bad9061325d565b8015610bfa5780601f10610bcf57610100808354040283529160200191610bfa565b820191906000526020600020905b815481529060010190602001808311610bdd57829003601f168201915b50505091835250506003820154602082015260048201546040820152600582015460608201526006820154608082015260079091015460ff16151560a09091015292915050565b6000610c4b61200b565b6000878152600a602052604090206005810154600160a01b900460ff16610cac5760405162461bcd60e51b815260206004820152601060248201526f4576656e74206e6f742061637469766560801b60448201526064015b60405180910390fd5b60058101546001600160a01b0316331480610cda5750610cda60008051602061358b833981519152336117ac565b610cf65760405162461bcd60e51b8152600401610ca390613297565b60008511610d505760405162461bcd60e51b815260206004820152602160248201527f4d617820737570706c79206d7573742062652067726561746572207468616e206044820152600360fc1b6064820152608401610ca3565b838311610d995760405162461bcd60e51b8152602060048201526017602482015276496e76616c69642073616c652074696d652072616e676560481b6044820152606401610ca3565b8060030154831115610ded5760405162461bcd60e51b815260206004820152601a60248201527f53616c65206d75737420656e64206265666f7265206576656e740000000000006044820152606401610ca3565b6009805460009182610dfe836132d5565b90915550604080516101008101825282815260208082018d81528284018d8152606084018d9052608084018c905260a084018b905260c084018a9052600160e085018190526000878152600b909452949092208351815590519381019390935551929350916002820190610e729082613334565b50606082015160038201556080820151600482015560a0820151600582015560c0820151600682015560e0909101516007909101805460ff19169115159190911790556000898152600c602090815260408083208054600181018255908452919092200182905551899082907fabf330a08fa3934846cf859dcbe8bccd2c598df64758145917e967b88e80b11b90610f0f908c908c908c906133f4565b60405180910390a398975050505050505050565b7f4d2e7a1e3f5dd6e203f087b15756ccf0e4ccd947fe1b639a38540089a1e47f63610f4d81611ff5565b6000610f598385610818565b11610fa65760405162461bcd60e51b815260206004820152601a60248201527f486f6c64657220646f6573206e6f74206f776e207469636b65740000000000006044820152606401610ca3565b6000838152600d602052604090205460ff1615610ffb5760405162461bcd60e51b8152602060048201526013602482015272151a58dad95d08185b1c9958591e481d5cd959606a1b6044820152606401610ca3565b6000838152600b6020908152604080832060018101548452600a90925290912060038101544210801590611033575080600401544211155b6110725760405162461bcd60e51b815260206004820152601060248201526f4576656e74206e6f742061637469766560801b6044820152606401610ca3565b6000858152600d602052604090819020805460ff1916600190811790915583015490516001600160a01b038616919087907f2782fb3b1d5410074bc2b5c4dc27369e9e67acedb9a92b1ca450f910bcba51d4906110d29042815260200190565b60405180910390a45050505050565b6000828152600b6020908152604080832060018101548452600a90925290912060058101546001600160a01b031633148061112f575061112f60008051602061358b833981519152336117ac565b61114b5760405162461bcd60e51b8152600401610ca390613297565b600782015460ff1661116f5760405162461bcd60e51b8152600401610ca390613419565b600083116111bf5760405162461bcd60e51b815260206004820152601c60248201527f5072696365206d7573742062652067726561746572207468616e2030000000006044820152606401610ca3565b506003015550565b336001600160a01b03861681148015906111e857506111e68682611e76565b155b156112195760405163711bec9160e11b81526001600160a01b03808316600483015287166024820152604401610ca3565b6112268686868686612031565b505050505050565b60008281526003602052604090206001015461124981611ff5565b6112538383612098565b50505050565b6001600160a01b03811633146112825760405163334bd91960e11b815260040160405180910390fd5b61128c828261212c565b505050565b600c60205281600052604060002081815481106112ad57600080fd5b90600052602060002001600091509150505481565b60008051602061358b8339815191526112da81611ff5565b6112e2612199565b50565b606081518351146113165781518351604051635b05999160e01b815260048101929092526024820152604401610ca3565b6000835167ffffffffffffffff81111561133257611332612a71565b60405190808252806020026020018201604052801561135b578160200160208202803683370190505b50905060005b84518110156113b25760208082028601015161138590602080840287010151610818565b82828151811061139757611397613449565b60209081029190910101526113ab816132d5565b9050611361565b509392505050565b60008051602061358b8339815191526113d281611ff5565b6113da6121eb565b6001600160a01b0382166114225760405162461bcd60e51b815260206004820152600f60248201526e496e76616c6964206164647265737360881b6044820152606401610ca3565b47806114675760405162461bcd60e51b81526020600482015260146024820152734e6f2066756e647320746f20776974686472617760601b6044820152606401610ca3565b6040516001600160a01b0384169082156108fc029083906000818181858888f1935050505015801561149d573d6000803e3d6000fd5b50604080518281524260208201526001600160a01b038516917ffbc3a599b784fe88772fc5abcc07223f64ca0b13acc341f4fb1e46bef0510eb4910160405180910390a25061086c6001600755565b6000828152600a6020526040902060058101546001600160a01b0316331480611528575061152860008051602061358b833981519152336117ac565b6115445760405162461bcd60e51b8152600401610ca390613297565b600581018054831515600160a01b0260ff60a01b1990911617905560405183907fb2bc5d7509f733d56ab7e45b3eacfbec4e497ae2863122195501d98ea897b4da9061159590851515815260200190565b60405180910390a2505050565b6115f5604051806101000160405280600081526020016060815260200160608152602001600081526020016000815260200160006001600160a01b03168152602001600015158152602001600081525090565b600a6000838152602001908152602001600020604051806101000160405290816000820154815260200160018201805461162e9061325d565b80601f016020809104026020016040519081016040528092919081815260200182805461165a9061325d565b80156116a75780601f1061167c576101008083540402835291602001916116a7565b820191906000526020600020905b81548152906001019060200180831161168a57829003601f168201915b505050505081526020016002820180546116c09061325d565b80601f01602080910402602001604051908101604052809291908181526020018280546116ec9061325d565b80156117395780601f1061170e57610100808354040283529160200191611739565b820191906000526020600020905b81548152906001019060200180831161171c57829003601f168201915b5050509183525050600382015460208201526004820154604082015260058201546001600160a01b0381166060830152600160a01b900460ff161515608082015260069091015460a09091015292915050565b60008051602061358b8339815191526117a481611ff5565b6112e2612215565b60009182526003602090815260408084206001600160a01b0393909316845291905290205460ff1690565b600f805461087d9061325d565b61086c338383612252565b6000838152600b6020908152604080832060018101548452600a90925290912060058101546001600160a01b031633148061183d575061183d60008051602061358b833981519152336117ac565b6118595760405162461bcd60e51b8152600401610ca390613297565b600782015460ff1661187d5760405162461bcd60e51b8152600401610ca390613419565b8383116118c65760405162461bcd60e51b8152602060048201526017602482015276496e76616c69642073616c652074696d652072616e676560481b6044820152606401610ca3565b806003015483111561191a5760405162461bcd60e51b815260206004820152601a60248201527f53616c65206d75737420656e64206265666f7265206576656e740000000000006044820152606401610ca3565b50600581019290925560069091015550565b600061193661200b565b4283116119855760405162461bcd60e51b815260206004820152601c60248201527f53746172742074696d65206d75737420626520696e20667574757265000000006044820152606401610ca3565b8282116119de5760405162461bcd60e51b815260206004820152602160248201527f456e642074696d65206d7573742062652061667465722073746172742074696d6044820152606560f81b6064820152608401610ca3565b6000855111611a265760405162461bcd60e51b81526020600482015260146024820152734e616d652063616e6e6f7420626520656d70747960601b6044820152606401610ca3565b6008805460009182611a37836132d5565b90915550604080516101008101825282815260208082018a81528284018a905260608301899052608083018890523360a0840152600160c084018190524260e08501526000868152600a9093529390912082518155905193945090929091820190611aa29082613334565b5060408201516002820190611ab79082613334565b50606082015160038201556080820151600482015560a082015160058201805460c08501511515600160a01b026001600160a81b03199091166001600160a01b039093169290921791909117905560e090910151600690910155611b3b7f4d2e7a1e3f5dd6e203f087b15756ccf0e4ccd947fe1b639a38540089a1e47f6333612098565b50336001600160a01b0316817f81f945738beff591c3eab232e9f3265ce3f12263a2ec7acf84db8dc0fce26a27888787604051611b7a939291906133f4565b60405180910390a395945050505050565b611b9361200b565b611b9b6121eb565b6000828152600b60205260409020600781015460ff16611bcd5760405162461bcd60e51b8152600401610ca390613419565b60008211611c1d5760405162461bcd60e51b815260206004820152601d60248201527f416d6f756e74206d7573742062652067726561746572207468616e20300000006044820152606401610ca3565b80600501544210158015611c35575080600601544211155b611c735760405162461bcd60e51b815260206004820152600f60248201526e53616c65206e6f742061637469766560881b6044820152606401610ca3565b6000838152600460205260408120546004830154909150611c94848361345f565b1115611cd75760405162461bcd60e51b815260206004820152601260248201527145786365656473206d617820737570706c7960701b6044820152606401610ca3565b6000838360030154611ce99190613472565b905080341015611d325760405162461bcd60e51b8152602060048201526014602482015273125b9cdd59999a58da595b9d081c185e5b595b9d60621b6044820152606401610ca3565b611d4d338686604051806020016040528060008152506122e8565b80341115611d8d57336108fc611d638334613489565b6040518115909202916000818181858888f19350505050158015611d8b573d6000803e3d6000fd5b505b336001600160a01b03168360010154867fa33fd280cea731ca97b5809baf2022a90a86ce6f6cc8a8b6223a1d18f058289c878760030154604051611ddb929190918252602082015260400190565b60405180910390a450505061086c6001600755565b6000818152600c6020908152604091829020805483518184028101840190945280845260609392830182828015610ae857602002820191906000526020600020905b815481526020019060010190808311611e325750505050509050919050565b600082815260036020526040902060010154611e6c81611ff5565b611253838361212c565b6001600160a01b03918216600090815260016020908152604080832093909416825291909152205460ff1690565b600b6020526000908152604090208054600182015460028301805492939192611ecc9061325d565b80601f0160208091040260200160405190810160405280929190818152602001828054611ef89061325d565b8015611f455780601f10611f1a57610100808354040283529160200191611f45565b820191906000526020600020905b815481529060010190602001808311611f2857829003601f168201915b505050600384015460048501546005860154600687015460079097015495969295919450925060ff1688565b336001600160a01b0386168114801590611f925750611f908682611e76565b155b15611fc35760405163711bec9160e11b81526001600160a01b03808316600483015287166024820152604401610ca3565b6112268686868686612345565b60006001600160e01b03198216637965db0b60e01b148061083a575061083a826123d3565b6112e28133612423565b600261086c8282613334565b60065460ff161561202f5760405163d93c066560e01b815260040160405180910390fd5b565b6001600160a01b03841661205b57604051632bfa23e760e11b815260006004820152602401610ca3565b6001600160a01b03851661208457604051626a0d4560e21b815260006004820152602401610ca3565b612091858585858561245c565b5050505050565b60006120a483836117ac565b6121245760008381526003602090815260408083206001600160a01b03861684529091529020805460ff191660011790556120dc3390565b6001600160a01b0316826001600160a01b0316847f2f8788117e7eff1d82e926ec794901d17c78024a50270940304540a733656f0d60405160405180910390a450600161083a565b50600061083a565b600061213883836117ac565b156121245760008381526003602090815260408083206001600160a01b0386168085529252808320805460ff1916905551339286917ff6391f5c32d9c69d2a47ea670b442974b53935d1edc7fd64eb21e047a839171b9190a450600161083a565b6121a16124af565b6006805460ff191690557f5db9ee0a495bf2e6ff9c91a7834c1ba4fdd244a5e8aa4e537bd38aeae4b073aa335b6040516001600160a01b03909116815260200160405180910390a1565b60026007540361220e57604051633ee5aeb560e01b815260040160405180910390fd5b6002600755565b61221d61200b565b6006805460ff191660011790557f62e78cea01bee320cd4e420270b5ea74000d11b0c9f74754ebdbfc544b05a2586121ce3390565b6001600160a01b03821661227b5760405162ced3e160e81b815260006004820152602401610ca3565b6001600160a01b03838116600081815260016020908152604080832094871680845294825291829020805460ff191686151590811790915591519182527f17307eab39ab6107e8899845ad3d59bd9653f200f220920489ca2b5937696c31910160405180910390a3505050565b6001600160a01b03841661231257604051632bfa23e760e11b815260006004820152602401610ca3565b6040805160018082526020820186905281830190815260608201859052608082019092529061122660008784848761245c565b6001600160a01b03841661236f57604051632bfa23e760e11b815260006004820152602401610ca3565b6001600160a01b03851661239857604051626a0d4560e21b815260006004820152602401610ca3565b604080516001808252602082018690528183019081526060820185905260808201909252906123ca878784848761245c565b50505050505050565b60006001600160e01b03198216636cdb3d1360e11b148061240457506001600160e01b031982166303a24d0760e21b145b8061083a57506301ffc9a760e01b6001600160e01b031983161461083a565b61242d82826117ac565b61086c5760405163e2517d3f60e01b81526001600160a01b038216600482015260248101839052604401610ca3565b612468858585856124d2565b6001600160a01b0384161561209157825133906001036124a1576020848101519084015161249a8389898585896124de565b5050611226565b611226818787878787612602565b60065460ff1661202f57604051638dfc202b60e01b815260040160405180910390fd5b611253848484846126eb565b6001600160a01b0384163b156112265760405163f23a6e6160e01b81526001600160a01b0385169063f23a6e6190612522908990899088908890889060040161349c565b6020604051808303816000875af192505050801561255d575060408051601f3d908101601f1916820190925261255a918101906134e1565b60015b6125c6573d80801561258b576040519150601f19603f3d011682016040523d82523d6000602084013e612590565b606091505b5080516000036125be57604051632bfa23e760e11b81526001600160a01b0386166004820152602401610ca3565b805160208201fd5b6001600160e01b0319811663f23a6e6160e01b146123ca57604051632bfa23e760e11b81526001600160a01b0386166004820152602401610ca3565b6001600160a01b0384163b156112265760405163bc197c8160e01b81526001600160a01b0385169063bc197c819061264690899089908890889088906004016134fe565b6020604051808303816000875af1925050508015612681575060408051601f3d908101601f1916820190925261267e918101906134e1565b60015b6126af573d80801561258b576040519150601f19603f3d011682016040523d82523d6000602084013e612590565b6001600160e01b0319811663bc197c8160e01b146123ca57604051632bfa23e760e11b81526001600160a01b0386166004820152602401610ca3565b6126f7848484846127e8565b6001600160a01b038416612780576000805b8351811015612766576020818102848101820151908601820151600090815260049092526040822080549192839261274290849061345f565b909155506127529050818461345f565b9250508061275f906132d5565b9050612709565b508060056000828254612779919061345f565b9091555050505b6001600160a01b038316611253576000805b83518110156127d75760208181028481018201519086018201516000908152600490925260409091208054829003905591909101906127d0816132d5565b9050612792565b506005805491909103905550505050565b80518251146128175781518151604051635b05999160e01b815260048101929092526024820152604401610ca3565b3360005b8351811015612926576020818102858101820151908501909101516001600160a01b038816156128ce576000828152602081815260408083206001600160a01b038c168452909152902054818110156128a7576040516303dee4c560e01b81526001600160a01b038a166004820152602481018290526044810183905260648101849052608401610ca3565b6000838152602081815260408083206001600160a01b038d16845290915290209082900390555b6001600160a01b03871615612913576000828152602081815260408083206001600160a01b038b1684529091528120805483929061290d90849061345f565b90915550505b50508061291f906132d5565b905061281b565b5082516001036129a75760208301516000906020840151909150856001600160a01b0316876001600160a01b0316846001600160a01b03167fc3d58168c5ae7397731d063d5bbf3d657854427343f4c083240f7aacaa2d0f628585604051612998929190918252602082015260400190565b60405180910390a45050612091565b836001600160a01b0316856001600160a01b0316826001600160a01b03167f4a39dc06d4c0dbc64b70af90fd698a233a518aa5d07e595d983b8c0526c8f7fb86866040516110d292919061355c565b6001600160a01b03811681146112e257600080fd5b60008060408385031215612a1e57600080fd5b8235612a29816129f6565b946020939093013593505050565b6001600160e01b0319811681146112e257600080fd5b600060208284031215612a5f57600080fd5b8135612a6a81612a37565b9392505050565b634e487b7160e01b600052604160045260246000fd5b604051601f8201601f1916810167ffffffffffffffff81118282101715612ab057612ab0612a71565b604052919050565b600082601f830112612ac957600080fd5b813567ffffffffffffffff811115612ae357612ae3612a71565b612af6601f8201601f1916602001612a87565b818152846020838601011115612b0b57600080fd5b816020850160208301376000918101602001919091529392505050565b600060208284031215612b3a57600080fd5b813567ffffffffffffffff811115612b5157600080fd5b612b5d84828501612ab8565b949350505050565b6000815180845260005b81811015612b8b57602081850181015186830182015201612b6f565b506000602082860101526020601f19601f83011685010191505092915050565b602081526000612a6a6020830184612b65565b600060208284031215612bd057600080fd5b5035919050565b60006101008a8352806020840152612bf18184018b612b65565b90508281036040840152612c05818a612b65565b6060840198909852505060808101949094526001600160a01b039290921660a0840152151560c083015260e0909101529392505050565b60208152815160208201526020820151604082015260006040830151610100806060850152612c6f610120850183612b65565b915060608501516080850152608085015160a085015260a085015160c085015260c085015160e085015260e0850151151581850152508091505092915050565b60008060008060008060c08789031215612cc857600080fd5b86359550602087013567ffffffffffffffff811115612ce657600080fd5b612cf289828a01612ab8565b96999698505050506040850135946060810135946080820135945060a09091013592509050565b60008060408385031215612d2c57600080fd5b823591506020830135612d3e816129f6565b809150509250929050565b60008060408385031215612d5c57600080fd5b50508035926020909101359150565b600067ffffffffffffffff821115612d8557612d85612a71565b5060051b60200190565b600082601f830112612da057600080fd5b81356020612db5612db083612d6b565b612a87565b82815260059290921b84018101918181019086841115612dd457600080fd5b8286015b84811015612def5780358352918301918301612dd8565b509695505050505050565b600080600080600060a08688031215612e1257600080fd5b8535612e1d816129f6565b94506020860135612e2d816129f6565b9350604086013567ffffffffffffffff80821115612e4a57600080fd5b612e5689838a01612d8f565b94506060880135915080821115612e6c57600080fd5b612e7889838a01612d8f565b93506080880135915080821115612e8e57600080fd5b50612e9b88828901612ab8565b9150509295509295909350565b60008060408385031215612ebb57600080fd5b823567ffffffffffffffff80821115612ed357600080fd5b818501915085601f830112612ee757600080fd5b81356020612ef7612db083612d6b565b82815260059290921b84018101918181019089841115612f1657600080fd5b948201945b83861015612f3d578535612f2e816129f6565b82529482019490820190612f1b565b96505086013592505080821115612f5357600080fd5b50612f6085828601612d8f565b9150509250929050565b600081518084526020808501945080840160005b83811015612f9a57815187529582019590820190600101612f7e565b509495945050505050565b602081526000612a6a6020830184612f6a565b600060208284031215612fca57600080fd5b8135612a6a816129f6565b80358015158114612fe557600080fd5b919050565b60008060408385031215612ffd57600080fd5b8235915061300d60208401612fd5565b90509250929050565b60208152815160208201526000602083015161010080604085015261303f610120850183612b65565b91506040850151601f1985840301606086015261305c8382612b65565b92505060608501516080850152608085015160a085015260018060a01b0360a08601511660c085015260c085015161309860e086018215159052565b5060e0949094015192909301919091525090565b600080604083850312156130bf57600080fd5b82356130ca816129f6565b915061300d60208401612fd5565b6000806000606084860312156130ed57600080fd5b505081359360208301359350604090920135919050565b6000806000806080858703121561311a57600080fd5b843567ffffffffffffffff8082111561313257600080fd5b61313e88838901612ab8565b9550602087013591508082111561315457600080fd5b5061316187828801612ab8565b949794965050505060408301359260600135919050565b6000806040838503121561318b57600080fd5b8235613196816129f6565b91506020830135612d3e816129f6565b60006101008a83528960208401528060408401526131c68184018a612b65565b60608401989098525050608081019490945260a084019290925260c0830152151560e0909101529392505050565b600080600080600060a0868803121561320c57600080fd5b8535613217816129f6565b94506020860135613227816129f6565b93506040860135925060608601359150608086013567ffffffffffffffff81111561325157600080fd5b612e9b88828901612ab8565b600181811c9082168061327157607f821691505b60208210810361329157634e487b7160e01b600052602260045260246000fd5b50919050565b6020808252600e908201526d139bdd08185d5d1a1bdc9a5e995960921b604082015260600190565b634e487b7160e01b600052601160045260246000fd5b6000600182016132e7576132e76132bf565b5060010190565b601f82111561128c57600081815260208120601f850160051c810160208610156133155750805b601f850160051c820191505b8181101561122657828155600101613321565b815167ffffffffffffffff81111561334e5761334e612a71565b6133628161335c845461325d565b846132ee565b602080601f831160018114613397576000841561337f5750858301515b600019600386901b1c1916600185901b178555611226565b600085815260208120601f198616915b828110156133c6578886015182559484019460019091019084016133a7565b50858210156133e45787850151600019600388901b60f8161c191681555b5050505050600190811b01905550565b6060815260006134076060830186612b65565b60208301949094525060400152919050565b6020808252601690820152755469636b65742074797065206e6f742061637469766560501b604082015260600190565b634e487b7160e01b600052603260045260246000fd5b8082018082111561083a5761083a6132bf565b808202811582820484141761083a5761083a6132bf565b8181038181111561083a5761083a6132bf565b6001600160a01b03868116825285166020820152604081018490526060810183905260a0608082018190526000906134d690830184612b65565b979650505050505050565b6000602082840312156134f357600080fd5b8151612a6a81612a37565b6001600160a01b0386811682528516602082015260a06040820181905260009061352a90830186612f6a565b828103606084015261353c8186612f6a565b905082810360808401526135508185612b65565b98975050505050505050565b60408152600061356f6040830185612f6a565b82810360208401526135818185612f6a565b9594505050505056fea49807205ce4d355092ef5a8a18f56e8913cf4a201fbe287825b095693c21775a2646970667358221220a5603d6043ce81a947befd9a04ba1dea888db550ae2476ff2b1b713ba60b32cc64736f6c63430008140033",
  "linkReferences": {},
  "deployedLinkReferences": {}
}